{
  "contractName": "AccessControl",
  "abi": [
    {
      "constant": true,
      "inputs": [],
      "name": "addressFin",
      "outputs": [
        {
          "name": "",
          "type": "address"
        }
      ],
      "payable": false,
      "stateMutability": "view",
      "type": "function"
    },
    {
      "constant": true,
      "inputs": [],
      "name": "addressDev",
      "outputs": [
        {
          "name": "",
          "type": "address"
        }
      ],
      "payable": false,
      "stateMutability": "view",
      "type": "function"
    },
    {
      "constant": true,
      "inputs": [],
      "name": "addressOps",
      "outputs": [
        {
          "name": "",
          "type": "address"
        }
      ],
      "payable": false,
      "stateMutability": "view",
      "type": "function"
    },
    {
      "anonymous": false,
      "inputs": [
        {
          "indexed": false,
          "name": "newContract",
          "type": "address"
        }
      ],
      "name": "ContractUpgrade",
      "type": "event"
    },
    {
      "constant": false,
      "inputs": [
        {
          "name": "_newDeveloper",
          "type": "address"
        }
      ],
      "name": "setDeveloper",
      "outputs": [],
      "payable": false,
      "stateMutability": "nonpayable",
      "type": "function"
    },
    {
      "constant": false,
      "inputs": [
        {
          "name": "_newFinance",
          "type": "address"
        }
      ],
      "name": "setFinance",
      "outputs": [],
      "payable": false,
      "stateMutability": "nonpayable",
      "type": "function"
    },
    {
      "constant": false,
      "inputs": [
        {
          "name": "_newOperation",
          "type": "address"
        }
      ],
      "name": "setOperation",
      "outputs": [],
      "payable": false,
      "stateMutability": "nonpayable",
      "type": "function"
    }
  ],
  "bytecode": "0x608060405234801561001057600080fd5b506102b2806100206000396000f3006080604052600436106100775763ffffffff7c010000000000000000000000000000000000000000000000000000000060003504166303d76547811461007c57806309553b28146100ad5780639b8d3064146100c2578063aee2988d146100e5578063f7f3815c146100fa578063ff70fa491461011b575b600080fd5b34801561008857600080fd5b5061009161013c565b60408051600160a060020a039092168252519081900360200190f35b3480156100b957600080fd5b5061009161014b565b3480156100ce57600080fd5b506100e3600160a060020a036004351661015a565b005b3480156100f157600080fd5b506100916101b9565b34801561010657600080fd5b506100e3600160a060020a03600435166101c8565b34801561012757600080fd5b506100e3600160a060020a0360043516610227565b600154600160a060020a031681565b600054600160a060020a031681565b60005433600160a060020a0390811691161461017557600080fd5b600160a060020a038116151561018a57600080fd5b6001805473ffffffffffffffffffffffffffffffffffffffff1916600160a060020a0392909216919091179055565b600254600160a060020a031681565b60005433600160a060020a039081169116146101e357600080fd5b600160a060020a03811615156101f857600080fd5b6002805473ffffffffffffffffffffffffffffffffffffffff1916600160a060020a0392909216919091179055565b60005433600160a060020a0390811691161461024257600080fd5b600160a060020a038116151561025757600080fd5b6000805473ffffffffffffffffffffffffffffffffffffffff1916600160a060020a03929092169190911790555600a165627a7a723058203540492f714d6e91a083b17f3fcd85c79cc6ab10a5774015283883346e82e4ee0029",
  "source": "pragma solidity ^0.4.23;\n\ncontract AccessControl {\n\n    /*** AccessControl functionality adapted from CryptoKitties ***/\n    event ContractUpgrade(address newContract);\n\n    // The addresses of the accounts (or contracts) that can execute actions within each roles.\n    address public addressDev;\n    address public addressFin;\n    address public addressOps;\n\n    /// @dev Access modifier for Developer-only functionality\n    modifier onlyDeveloper() {\n        require(msg.sender == addressDev);\n        _;\n    }\n\n    /// @dev Access modifier for Finance-only functionality\n    modifier onlyFinance() {\n        require(msg.sender == addressFin);\n        _;\n    }\n\n    /// @dev Access modifier for Operation-only functionality\n    modifier onlyOperation() {\n        require(msg.sender == addressOps);\n        _;\n    }\n\n    modifier onlyTeamMembers() {\n        require(\n            msg.sender == addressDev ||\n            msg.sender == addressFin ||\n            msg.sender == addressOps\n        );\n        _;\n    }\n\n    /// @dev Assigns a new address to act as the Developer. Only available to the current Developer.\n    /// @param _newDeveloper The address of the new Developer\n    function setDeveloper(address _newDeveloper) external onlyDeveloper {\n        require(_newDeveloper != address(0));\n\n        addressDev = _newDeveloper;\n    }\n\n    /// @dev Assigns a new address to act as the Finance. Only available to the current Developer.\n    /// @param _newFinance The address of the new Finance\n    function setFinance(address _newFinance) external onlyDeveloper {\n        require(_newFinance != address(0));\n\n        addressFin = _newFinance;\n    }\n\n    /// @dev Assigns a new address to act as the Operation. Only available to the current Developer.\n    /// @param _newOperation The address of the new Operation\n    function setOperation(address _newOperation) external onlyDeveloper {\n        require(_newOperation != address(0));\n\n        addressOps = _newOperation;\n    }\n}\n",
  "sourcePath": "/Users/jakub/GitHub/cryptominerals-beta/contracts/AccessControl.sol",
  "compiler": {
    "name": "solc",
    "version": "0.4.23+commit.124ca40d.Emscripten.clang"
  },
  "schemaVersion": "2.0.0",
  "updatedAt": "2018-07-10T20:32:33.104Z"
}