{
  "contractName": "MineralBase",
  "abi": [
    {
      "constant": true,
      "inputs": [],
      "name": "addressFin",
      "outputs": [
        {
          "name": "",
          "type": "address"
        }
      ],
      "payable": false,
      "stateMutability": "view",
      "type": "function"
    },
    {
      "constant": true,
      "inputs": [],
      "name": "addressDev",
      "outputs": [
        {
          "name": "",
          "type": "address"
        }
      ],
      "payable": false,
      "stateMutability": "view",
      "type": "function"
    },
    {
      "constant": false,
      "inputs": [],
      "name": "unpause",
      "outputs": [],
      "payable": false,
      "stateMutability": "nonpayable",
      "type": "function"
    },
    {
      "constant": true,
      "inputs": [],
      "name": "paused",
      "outputs": [
        {
          "name": "",
          "type": "bool"
        }
      ],
      "payable": false,
      "stateMutability": "view",
      "type": "function"
    },
    {
      "constant": true,
      "inputs": [],
      "name": "discounts",
      "outputs": [
        {
          "name": "",
          "type": "uint16"
        }
      ],
      "payable": false,
      "stateMutability": "view",
      "type": "function"
    },
    {
      "constant": true,
      "inputs": [],
      "name": "oresLeft",
      "outputs": [
        {
          "name": "",
          "type": "uint32"
        }
      ],
      "payable": false,
      "stateMutability": "view",
      "type": "function"
    },
    {
      "constant": false,
      "inputs": [],
      "name": "pause",
      "outputs": [],
      "payable": false,
      "stateMutability": "nonpayable",
      "type": "function"
    },
    {
      "constant": true,
      "inputs": [],
      "name": "owner",
      "outputs": [
        {
          "name": "",
          "type": "address"
        }
      ],
      "payable": false,
      "stateMutability": "view",
      "type": "function"
    },
    {
      "constant": true,
      "inputs": [],
      "name": "isPresale",
      "outputs": [
        {
          "name": "",
          "type": "bool"
        }
      ],
      "payable": false,
      "stateMutability": "view",
      "type": "function"
    },
    {
      "constant": true,
      "inputs": [],
      "name": "orePrice",
      "outputs": [
        {
          "name": "",
          "type": "uint64"
        }
      ],
      "payable": false,
      "stateMutability": "view",
      "type": "function"
    },
    {
      "constant": false,
      "inputs": [
        {
          "name": "_newFinance",
          "type": "address"
        }
      ],
      "name": "setFinance",
      "outputs": [],
      "payable": false,
      "stateMutability": "nonpayable",
      "type": "function"
    },
    {
      "constant": true,
      "inputs": [],
      "name": "addressOps",
      "outputs": [
        {
          "name": "",
          "type": "address"
        }
      ],
      "payable": false,
      "stateMutability": "view",
      "type": "function"
    },
    {
      "constant": false,
      "inputs": [
        {
          "name": "newOwner",
          "type": "address"
        }
      ],
      "name": "transferOwnership",
      "outputs": [],
      "payable": false,
      "stateMutability": "nonpayable",
      "type": "function"
    },
    {
      "constant": false,
      "inputs": [
        {
          "name": "_newOperation",
          "type": "address"
        }
      ],
      "name": "setOperation",
      "outputs": [],
      "payable": false,
      "stateMutability": "nonpayable",
      "type": "function"
    },
    {
      "constant": false,
      "inputs": [
        {
          "name": "_newDeveloper",
          "type": "address"
        }
      ],
      "name": "setDeveloper",
      "outputs": [],
      "payable": false,
      "stateMutability": "nonpayable",
      "type": "function"
    },
    {
      "inputs": [],
      "payable": false,
      "stateMutability": "nonpayable",
      "type": "constructor"
    },
    {
      "anonymous": false,
      "inputs": [],
      "name": "Pause",
      "type": "event"
    },
    {
      "anonymous": false,
      "inputs": [],
      "name": "Unpause",
      "type": "event"
    },
    {
      "anonymous": false,
      "inputs": [
        {
          "indexed": true,
          "name": "previousOwner",
          "type": "address"
        },
        {
          "indexed": true,
          "name": "newOwner",
          "type": "address"
        }
      ],
      "name": "OwnershipTransferred",
      "type": "event"
    },
    {
      "anonymous": false,
      "inputs": [
        {
          "indexed": false,
          "name": "newContract",
          "type": "address"
        }
      ],
      "name": "ContractUpgrade",
      "type": "event"
    },
    {
      "constant": true,
      "inputs": [
        {
          "name": "_owner",
          "type": "address"
        }
      ],
      "name": "balanceOfOre",
      "outputs": [
        {
          "name": "_balance",
          "type": "uint256"
        }
      ],
      "payable": false,
      "stateMutability": "view",
      "type": "function"
    },
    {
      "constant": false,
      "inputs": [
        {
          "name": "_recipient",
          "type": "address"
        },
        {
          "name": "amount",
          "type": "uint256"
        }
      ],
      "name": "sendOre",
      "outputs": [],
      "payable": true,
      "stateMutability": "payable",
      "type": "function"
    },
    {
      "constant": false,
      "inputs": [],
      "name": "endPresale",
      "outputs": [],
      "payable": false,
      "stateMutability": "nonpayable",
      "type": "function"
    }
  ],
  "bytecode": "0x608060405260038054750100000000000000000000000000000000000000000060a060020a61ffff02199091161760b060020a61ffff0219167727100000000000000000000000000000000000000000000017905560048054662386f26fc1000067ffffffffffffffff1990911617905534801561007c57600080fd5b506003805460008054600160a060020a0319908116600160a060020a033381169483168517831685179081169182178455600180548416831790556002805490931690911782557e87a23800000000000000000000000000000000000000000000000000000000600160e060020a037a87a23800000000000000000000000000000000000000000000000060c060020a63ffffffff0219938416171617808655938352600560205260408320805478010000000000000000000000000000000000000000000000009586900463ffffffff908116859004811690910190915585548581048216939093041690930292169190911790915561080c90819061018390396000f3006080604052600436106100fb5763ffffffff7c010000000000000000000000000000000000000000000000000000000060003504166303d76547811461010057806309553b28146101315780633f4ba83a146101465780634cf8dce71461015d5780635c975abb1461019057806375af65d1146101b957806376c2c0aa146101e55780638456cb59146102135780638da5cb5b1461022857806395364a841461023d5780639aa93224146102525780639b2d2cbd146102695780639b8d30641461029b578063a43be57b146102bc578063aee2988d146102d1578063f2fde38b146102e6578063f7f3815c14610307578063ff70fa4914610328575b600080fd5b34801561010c57600080fd5b50610115610349565b60408051600160a060020a039092168252519081900360200190f35b34801561013d57600080fd5b50610115610358565b34801561015257600080fd5b5061015b610367565b005b34801561016957600080fd5b5061017e600160a060020a03600435166103f4565b60408051918252519081900360200190f35b34801561019c57600080fd5b506101a561040f565b604080519115158252519081900360200190f35b3480156101c557600080fd5b506101ce610430565b6040805161ffff9092168252519081900360200190f35b3480156101f157600080fd5b506101fa610454565b6040805163ffffffff9092168252519081900360200190f35b34801561021f57600080fd5b5061015b61047c565b34801561023457600080fd5b5061011561051f565b34801561024957600080fd5b506101a561052e565b61015b600160a060020a0360043516602435610550565b34801561027557600080fd5b5061027e610599565b6040805167ffffffffffffffff9092168252519081900360200190f35b3480156102a757600080fd5b5061015b600160a060020a03600435166105a9565b3480156102c857600080fd5b5061015b610608565b3480156102dd57600080fd5b5061011561067a565b3480156102f257600080fd5b5061015b600160a060020a0360043516610689565b34801561031357600080fd5b5061015b600160a060020a0360043516610722565b34801561033457600080fd5b5061015b600160a060020a0360043516610781565b600154600160a060020a031681565b600054600160a060020a031681565b60035433600160a060020a0390811691161461038257600080fd5b60035474010000000000000000000000000000000000000000900460ff1615156103ab57600080fd5b6003805474ff0000000000000000000000000000000000000000191690556040517f7805862f689e2f13df9f062ff482ad3ad112aca9e0847911ed832e158c525b3390600090a1565b600160a060020a031660009081526005602052604090205490565b60035474010000000000000000000000000000000000000000900460ff1681565b600354760100000000000000000000000000000000000000000000900461ffff1681565b6003547801000000000000000000000000000000000000000000000000900463ffffffff1681565b60035433600160a060020a0390811691161461049757600080fd5b60035474010000000000000000000000000000000000000000900460ff16156104bf57600080fd5b6003805474ff00000000000000000000000000000000000000001916740100000000000000000000000000000000000000001790556040517f6985a02210a168e66602d3235cb6db0e70f92b3ba4d376a33c0f3d9434bff62590600090a1565b600354600160a060020a031681565b6003547501000000000000000000000000000000000000000000900460ff1681565b8061055a336103f4565b101561056557600080fd5b600160a060020a03338116600090815260056020526040808220805485900390559390911681529190912080549091019055565b60045467ffffffffffffffff1681565b60005433600160a060020a039081169116146105c457600080fd5b600160a060020a03811615156105d957600080fd5b6001805473ffffffffffffffffffffffffffffffffffffffff1916600160a060020a0392909216919091179055565b60005433600160a060020a0390811691161480610633575060015433600160a060020a039081169116145b8061064c575060025433600160a060020a039081169116145b151561065757600080fd5b6003805477ffffff00000000000000000000000000000000000000000019169055565b600254600160a060020a031681565b60035433600160a060020a039081169116146106a457600080fd5b600160a060020a03811615156106b957600080fd5b600354604051600160a060020a038084169216907f8be0079c531659141344cd1fd0a4f28419497f9722a3daafe3b4186f6b6457e090600090a36003805473ffffffffffffffffffffffffffffffffffffffff1916600160a060020a0392909216919091179055565b60005433600160a060020a0390811691161461073d57600080fd5b600160a060020a038116151561075257600080fd5b6002805473ffffffffffffffffffffffffffffffffffffffff1916600160a060020a0392909216919091179055565b60005433600160a060020a0390811691161461079c57600080fd5b600160a060020a03811615156107b157600080fd5b6000805473ffffffffffffffffffffffffffffffffffffffff1916600160a060020a03929092169190911790555600a165627a7a723058207f5bcb5c2b16d1ef4b98cbba79a7e221c15d19c39ceaae4d7fc613964afb4a3a0029",
  "source": "pragma solidity ^0.4.11;\n\nimport \"./AccessControl.sol\";\nimport \"./Pausable.sol\";\n\ncontract MineralBase is AccessControl, Pausable {\n\n    bool public isPresale = true;\n\n    uint16 public discounts = 10000;\n    uint32 constant TOTAL_SUPPLY = 8888888;\n    uint32 public oresLeft;\n    uint32 gemsLeft;\n\n    // Price of ORE (50 pieces in presale, only 1 afterwards)\n    uint64 public orePrice = 1e16;\n\n    mapping(address => uint) internal ownerOreCount;\n\n    // Constructor\n    function MineralBase() public {\n\n        // Assign ownership to the creator\n        owner = msg.sender;\n        addressDev = owner;\n        addressFin = owner;\n        addressOps = owner;\n\n        // Initializing counters\n        oresLeft = TOTAL_SUPPLY;\n        gemsLeft = TOTAL_SUPPLY;\n\n        // Transfering ORES to the team\n        ownerOreCount[msg.sender] += oresLeft / 2;\n        oresLeft = oresLeft / 2;\n    }\n\n    function balanceOfOre(address _owner) public view returns (uint256 _balance) {\n        return ownerOreCount[_owner];\n    }\n\n    function sendOre(address _recipient, uint amount) external payable {\n        require(balanceOfOre(msg.sender) >= amount);\n        ownerOreCount[msg.sender] -= amount;\n        ownerOreCount[_recipient] += amount;\n    }\n\n    function endPresale() onlyTeamMembers external {\n        isPresale = false;\n        discounts = 0;\n    }\n}\n",
  "sourcePath": "/Users/jakub/GitHub/cryptominerals-beta/contracts/MineralBase.sol",
  "compiler": {
    "name": "solc",
    "version": "0.4.23+commit.124ca40d.Emscripten.clang"
  },
  "schemaVersion": "2.0.0",
  "updatedAt": "2018-07-10T20:32:33.106Z"
}