{
  "contractName": "MineralOwnership",
  "abi": [
    {
      "constant": true,
      "inputs": [],
      "name": "addressFin",
      "outputs": [
        {
          "name": "",
          "type": "address"
        }
      ],
      "payable": false,
      "stateMutability": "view",
      "type": "function"
    },
    {
      "constant": true,
      "inputs": [],
      "name": "name",
      "outputs": [
        {
          "name": "",
          "type": "string"
        }
      ],
      "payable": false,
      "stateMutability": "view",
      "type": "function"
    },
    {
      "constant": true,
      "inputs": [
        {
          "name": "",
          "type": "uint256"
        }
      ],
      "name": "gemIndexToApproved",
      "outputs": [
        {
          "name": "",
          "type": "address"
        }
      ],
      "payable": false,
      "stateMutability": "view",
      "type": "function"
    },
    {
      "constant": true,
      "inputs": [],
      "name": "addressDev",
      "outputs": [
        {
          "name": "",
          "type": "address"
        }
      ],
      "payable": false,
      "stateMutability": "view",
      "type": "function"
    },
    {
      "constant": true,
      "inputs": [
        {
          "name": "",
          "type": "uint256"
        }
      ],
      "name": "gemstones",
      "outputs": [
        {
          "name": "category",
          "type": "uint256"
        },
        {
          "name": "name",
          "type": "string"
        },
        {
          "name": "colour",
          "type": "uint256"
        },
        {
          "name": "extractionTime",
          "type": "uint64"
        },
        {
          "name": "polishedTime",
          "type": "uint64"
        },
        {
          "name": "price",
          "type": "uint256"
        }
      ],
      "payable": false,
      "stateMutability": "view",
      "type": "function"
    },
    {
      "constant": false,
      "inputs": [
        {
          "name": "_gemId",
          "type": "uint256"
        }
      ],
      "name": "polishRoughStone",
      "outputs": [],
      "payable": true,
      "stateMutability": "payable",
      "type": "function"
    },
    {
      "constant": false,
      "inputs": [],
      "name": "unpause",
      "outputs": [],
      "payable": false,
      "stateMutability": "nonpayable",
      "type": "function"
    },
    {
      "constant": true,
      "inputs": [
        {
          "name": "_owner",
          "type": "address"
        }
      ],
      "name": "balanceOfOre",
      "outputs": [
        {
          "name": "_balance",
          "type": "uint256"
        }
      ],
      "payable": false,
      "stateMutability": "view",
      "type": "function"
    },
    {
      "constant": true,
      "inputs": [],
      "name": "paused",
      "outputs": [
        {
          "name": "",
          "type": "bool"
        }
      ],
      "payable": false,
      "stateMutability": "view",
      "type": "function"
    },
    {
      "constant": false,
      "inputs": [
        {
          "name": "_name",
          "type": "string"
        }
      ],
      "name": "extractOre",
      "outputs": [
        {
          "name": "",
          "type": "uint8"
        },
        {
          "name": "",
          "type": "uint256"
        }
      ],
      "payable": true,
      "stateMutability": "payable",
      "type": "function"
    },
    {
      "constant": true,
      "inputs": [],
      "name": "discounts",
      "outputs": [
        {
          "name": "",
          "type": "uint16"
        }
      ],
      "payable": false,
      "stateMutability": "view",
      "type": "function"
    },
    {
      "constant": true,
      "inputs": [],
      "name": "oresLeft",
      "outputs": [
        {
          "name": "",
          "type": "uint32"
        }
      ],
      "payable": false,
      "stateMutability": "view",
      "type": "function"
    },
    {
      "constant": false,
      "inputs": [],
      "name": "pause",
      "outputs": [],
      "payable": false,
      "stateMutability": "nonpayable",
      "type": "function"
    },
    {
      "constant": true,
      "inputs": [],
      "name": "owner",
      "outputs": [
        {
          "name": "",
          "type": "address"
        }
      ],
      "payable": false,
      "stateMutability": "view",
      "type": "function"
    },
    {
      "constant": true,
      "inputs": [],
      "name": "isPresale",
      "outputs": [
        {
          "name": "",
          "type": "bool"
        }
      ],
      "payable": false,
      "stateMutability": "view",
      "type": "function"
    },
    {
      "constant": true,
      "inputs": [],
      "name": "symbol",
      "outputs": [
        {
          "name": "",
          "type": "string"
        }
      ],
      "payable": false,
      "stateMutability": "view",
      "type": "function"
    },
    {
      "constant": false,
      "inputs": [
        {
          "name": "_recipient",
          "type": "address"
        },
        {
          "name": "amount",
          "type": "uint256"
        }
      ],
      "name": "sendOre",
      "outputs": [],
      "payable": true,
      "stateMutability": "payable",
      "type": "function"
    },
    {
      "constant": true,
      "inputs": [],
      "name": "orePrice",
      "outputs": [
        {
          "name": "",
          "type": "uint64"
        }
      ],
      "payable": false,
      "stateMutability": "view",
      "type": "function"
    },
    {
      "constant": false,
      "inputs": [
        {
          "name": "_newFinance",
          "type": "address"
        }
      ],
      "name": "setFinance",
      "outputs": [],
      "payable": false,
      "stateMutability": "nonpayable",
      "type": "function"
    },
    {
      "constant": false,
      "inputs": [],
      "name": "endPresale",
      "outputs": [],
      "payable": false,
      "stateMutability": "nonpayable",
      "type": "function"
    },
    {
      "constant": true,
      "inputs": [],
      "name": "addressOps",
      "outputs": [
        {
          "name": "",
          "type": "address"
        }
      ],
      "payable": false,
      "stateMutability": "view",
      "type": "function"
    },
    {
      "constant": true,
      "inputs": [
        {
          "name": "",
          "type": "uint256"
        }
      ],
      "name": "gemIndexToOwner",
      "outputs": [
        {
          "name": "",
          "type": "address"
        }
      ],
      "payable": false,
      "stateMutability": "view",
      "type": "function"
    },
    {
      "constant": false,
      "inputs": [
        {
          "name": "newOwner",
          "type": "address"
        }
      ],
      "name": "transferOwnership",
      "outputs": [],
      "payable": false,
      "stateMutability": "nonpayable",
      "type": "function"
    },
    {
      "constant": false,
      "inputs": [
        {
          "name": "_newOperation",
          "type": "address"
        }
      ],
      "name": "setOperation",
      "outputs": [],
      "payable": false,
      "stateMutability": "nonpayable",
      "type": "function"
    },
    {
      "constant": false,
      "inputs": [
        {
          "name": "_newDeveloper",
          "type": "address"
        }
      ],
      "name": "setDeveloper",
      "outputs": [],
      "payable": false,
      "stateMutability": "nonpayable",
      "type": "function"
    },
    {
      "anonymous": false,
      "inputs": [
        {
          "indexed": true,
          "name": "_from",
          "type": "address"
        },
        {
          "indexed": true,
          "name": "_to",
          "type": "address"
        },
        {
          "indexed": false,
          "name": "_tokenId",
          "type": "uint256"
        }
      ],
      "name": "Transfer",
      "type": "event"
    },
    {
      "anonymous": false,
      "inputs": [
        {
          "indexed": true,
          "name": "_owner",
          "type": "address"
        },
        {
          "indexed": true,
          "name": "_approved",
          "type": "address"
        },
        {
          "indexed": false,
          "name": "_tokenId",
          "type": "uint256"
        }
      ],
      "name": "Approval",
      "type": "event"
    },
    {
      "anonymous": false,
      "inputs": [],
      "name": "Pause",
      "type": "event"
    },
    {
      "anonymous": false,
      "inputs": [],
      "name": "Unpause",
      "type": "event"
    },
    {
      "anonymous": false,
      "inputs": [
        {
          "indexed": true,
          "name": "previousOwner",
          "type": "address"
        },
        {
          "indexed": true,
          "name": "newOwner",
          "type": "address"
        }
      ],
      "name": "OwnershipTransferred",
      "type": "event"
    },
    {
      "anonymous": false,
      "inputs": [
        {
          "indexed": false,
          "name": "newContract",
          "type": "address"
        }
      ],
      "name": "ContractUpgrade",
      "type": "event"
    },
    {
      "constant": true,
      "inputs": [
        {
          "name": "_owner",
          "type": "address"
        }
      ],
      "name": "balanceOf",
      "outputs": [
        {
          "name": "count",
          "type": "uint256"
        }
      ],
      "payable": false,
      "stateMutability": "view",
      "type": "function"
    },
    {
      "constant": false,
      "inputs": [
        {
          "name": "_to",
          "type": "address"
        },
        {
          "name": "_gemId",
          "type": "uint256"
        }
      ],
      "name": "transfer",
      "outputs": [],
      "payable": false,
      "stateMutability": "nonpayable",
      "type": "function"
    },
    {
      "constant": false,
      "inputs": [
        {
          "name": "_to",
          "type": "address"
        },
        {
          "name": "_gemId",
          "type": "uint256"
        }
      ],
      "name": "approve",
      "outputs": [],
      "payable": false,
      "stateMutability": "nonpayable",
      "type": "function"
    },
    {
      "constant": false,
      "inputs": [
        {
          "name": "_from",
          "type": "address"
        },
        {
          "name": "_to",
          "type": "address"
        },
        {
          "name": "_gemId",
          "type": "uint256"
        }
      ],
      "name": "transferFrom",
      "outputs": [],
      "payable": false,
      "stateMutability": "nonpayable",
      "type": "function"
    },
    {
      "constant": true,
      "inputs": [],
      "name": "totalSupply",
      "outputs": [
        {
          "name": "",
          "type": "uint256"
        }
      ],
      "payable": false,
      "stateMutability": "view",
      "type": "function"
    },
    {
      "constant": true,
      "inputs": [
        {
          "name": "_gemId",
          "type": "uint256"
        }
      ],
      "name": "ownerOf",
      "outputs": [
        {
          "name": "owner",
          "type": "address"
        }
      ],
      "payable": false,
      "stateMutability": "view",
      "type": "function"
    },
    {
      "constant": true,
      "inputs": [],
      "name": "implementsERC721",
      "outputs": [
        {
          "name": "implementsERC721",
          "type": "bool"
        }
      ],
      "payable": false,
      "stateMutability": "view",
      "type": "function"
    },
    {
      "constant": true,
      "inputs": [
        {
          "name": "_owner",
          "type": "address"
        }
      ],
      "name": "gemsOfOwner",
      "outputs": [
        {
          "name": "ownerGems",
          "type": "uint256[]"
        }
      ],
      "payable": false,
      "stateMutability": "view",
      "type": "function"
    }
  ],
  "bytecode": "0x60038054750100000000000000000000000000000000000000000060a060020a61ffff02199091161760b060020a61ffff0219167727100000000000000000000000000000000000000000000017905560048054662386f26fc100006001604060020a03199091161790556106c06040526122b0608090815261262860a0526129f860c052612e2b60e0526132c961010052614b68610120526152f261014052615b3e6101605261645e61018052616e676101a05261711c6101c052617c6c6101e0526188dd6102005261968d6102205261a59b6102405261a9aa6102605261baa26102805261cd4c6102a05261e1d36102c05261f8686102e05261fe8061030052620117f361032052620133f261034052620152bd610360526201749d6103805262017dc06103a0526201a3ed6103c0526201cdeb6103e0526201fc1c6104005262022eec6104205262023ca061044052620275e3610460526202b4e1610480526202fa2a6104a052620346626104c05262035af06104e0526203b0d56105005262040f516105205262047740610540526204e993610560526205086961058052620589406105a052620616fa6105c0526206b2e06105e05262075e5d6106005262078c9e6106205262084de1610640526209227761066052620a0c5061068052620b0da16106a052620001f99060069060326200039b565b506040805161014081018252671bc16d674ec8000081526718fae27693b4000060208201526716345785d8a000009181019190915267120a871cc00200006060820152670de0b6b3a76400006080820152670b1a2bc2ec50000060a0820152670853a0d2313c000060c082015267058d15e17628000060e08201526702c68af0bb14000061010082015266b1a2bc2ec50000610120820152620002a190600790600a62000450565b506003805460008054600160a060020a0319908116600160a060020a033381169483168517831685179081169182178455600180548416831790556002805490931690911782557e87a23800000000000000000000000000000000000000000000000000000000600160e060020a037a87a23800000000000000000000000000000000000000000000000060c060020a63ffffffff021993841617161780865593835260056020526040909220805478010000000000000000000000000000000000000000000000009485900463ffffffff9081168490048116909101909155845484810482169290920416909202911617905562000559565b828054828255906000526020600020906007016008900481019282156200043e5791602002820160005b838211156200040a57835183826101000a81548163ffffffff021916908362ffffff1602179055509260200192600401602081600301049283019260010302620003c5565b80156200043c5782816101000a81549063ffffffff02191690556004016020816003010492830192600103026200040a565b505b506200044c9291506200050b565b5090565b82805482825590600052602060002090600301600490048101928215620004fd5791602002820160005b83821115620004c657835183826101000a8154816001604060020a0302191690836001604060020a0316021790555092602001926008016020816007010492830192600103026200047a565b8015620004fb5782816101000a8154906001604060020a030219169055600801602081600701049283019260010302620004c6565b505b506200044c92915062000532565b6200052f91905b808211156200044c57805463ffffffff1916815560010162000512565b90565b6200052f91905b808211156200044c5780546001604060020a031916815560010162000539565b6116da80620005696000396000f3006080604052600436106101875763ffffffff60e060020a60003504166303d76547811461018c57806306fdde03146101bd57806306fde29d1461024757806309553b281461025f578063095ea7b3146102745780630f1833bb1461029a5780631051db341461035957806318160ddd1461038257806323b872dd146103a9578063319dac48146103d35780633f4ba83a146103de5780634cf8dce7146103f35780635c975abb146104145780636352211e146104295780636fcbb5461461044157806370a082311461047157806375af65d11461049257806376c2c0aa146104be5780638456cb59146104ec5780638da5cb5b1461050157806395364a841461051657806395d89b411461052b5780639aa93224146105405780639b2d2cbd146105575780639b8d306414610589578063a43be57b146105aa578063a9059cbb146105bf578063aee2988d146105e3578063bc8d7a51146105f8578063c0c8d66a14610669578063f2fde38b14610681578063f7f3815c146106a2578063ff70fa49146106c3575b600080fd5b34801561019857600080fd5b506101a16106e4565b60408051600160a060020a039092168252519081900360200190f35b3480156101c957600080fd5b506101d26106f3565b6040805160208082528351818301528351919283929083019185019080838360005b8381101561020c5781810151838201526020016101f4565b50505050905090810190601f1680156102395780820380516001836020036101000a031916815260200191505b509250505060405180910390f35b34801561025357600080fd5b506101a160043561072a565b34801561026b57600080fd5b506101a1610745565b34801561028057600080fd5b50610298600160a060020a0360043516602435610754565b005b3480156102a657600080fd5b506102b26004356107d9565b6040805187815290810185905267ffffffffffffffff80851660608301528316608082015260a0810182905260c06020808301828152885192840192909252875160e084019189019080838360005b83811015610319578181015183820152602001610301565b50505050905090810190601f1680156103465780820380516001836020036101000a031916815260200191505b5097505050505050505060405180910390f35b34801561036557600080fd5b5061036e6108d3565b604080519115158252519081900360200190f35b34801561038e57600080fd5b506103976108d9565b60408051918252519081900360200190f35b3480156103b557600080fd5b50610298600160a060020a03600435811690602435166044356108f4565b61029860043561097b565b3480156103ea57600080fd5b50610298610a37565b3480156103ff57600080fd5b50610397600160a060020a0360043516610ab3565b34801561042057600080fd5b5061036e610ad2565b34801561043557600080fd5b506101a1600435610ae2565b6104546004803560248101910135610b06565b6040805160ff909316835260208301919091528051918290030190f35b34801561047d57600080fd5b50610397600160a060020a0360043516610e47565b34801561049e57600080fd5b506104a7610e62565b6040805161ffff9092168252519081900360200190f35b3480156104ca57600080fd5b506104d3610e86565b6040805163ffffffff9092168252519081900360200190f35b3480156104f857600080fd5b50610298610eae565b34801561050d57600080fd5b506101a1610f2f565b34801561052257600080fd5b5061036e610f3e565b34801561053757600080fd5b506101d2610f60565b610298600160a060020a0360043516602435610f97565b34801561056357600080fd5b5061056c610fe0565b6040805167ffffffffffffffff9092168252519081900360200190f35b34801561059557600080fd5b50610298600160a060020a0360043516610ff0565b3480156105b657600080fd5b50610298611042565b3480156105cb57600080fd5b50610298600160a060020a03600435166024356110b4565b3480156105ef57600080fd5b506101a1611125565b34801561060457600080fd5b50610619600160a060020a0360043516611134565b60408051602080825283518183015283519192839290830191858101910280838360005b8381101561065557818101518382015260200161063d565b505050509050019250505060405180910390f35b34801561067557600080fd5b506101a1600435611206565b34801561068d57600080fd5b50610298600160a060020a0360043516611221565b3480156106ae57600080fd5b50610298600160a060020a03600435166112ad565b3480156106cf57600080fd5b50610298600160a060020a03600435166112ff565b600154600160a060020a031681565b60408051808201909152600e81527f43727970746f4d696e6572616c73000000000000000000000000000000000000602082015281565b600a60205260009081526040902054600160a060020a031681565b600054600160a060020a031681565b60035460a060020a900460ff161561076b57600080fd5b6107753382611351565b151561078057600080fd5b61078a8183611371565b81600160a060020a031633600160a060020a03167f8c5be1e5ebec7d5bd14f71427d1e84f3dd0314c0f7b2291e5b200ac8c7c3b925836040518082815260200191505060405180910390a35050565b600b8054829081106107e757fe5b9060005260206000209060050201600091509050806000015490806001018054600181600116156101000203166002900480601f0160208091040260200160405190810160405280929190818152602001828054600181600116156101000203166002900480156108995780601f1061086e57610100808354040283529160200191610899565b820191906000526020600020905b81548152906001019060200180831161087c57829003601f168201915b505050600284015460038501546004909501549394909367ffffffffffffffff808316945068010000000000000000909204909116915086565b60015b90565b60035463ffffffff60e060020a90910481166287a238031690565b60035460a060020a900460ff161561090b57600080fd5b600160a060020a038216151561092057600080fd5b30600160a060020a031682600160a060020a03161415151561094157600080fd5b61094b338261139f565b151561095657600080fd5b6109608382611351565b151561096b57600080fd5b6109768383836113bf565b505050565b60008181526009602052604081205434919033600160a060020a039081169116146109a557600080fd5b600b8054849081106109b357fe5b60009182526020909120600590910201600381015490915068010000000000000000900467ffffffffffffffff16156109eb57600080fd5b80546109f690611447565b821015610a0257600080fd5b60030180546fffffffffffffffff00000000000000001916680100000000000000004267ffffffffffffffff16021790555050565b60035433600160a060020a03908116911614610a5257600080fd5b60035460a060020a900460ff161515610a6a57600080fd5b6003805474ff0000000000000000000000000000000000000000191690556040517f7805862f689e2f13df9f062ff482ad3ad112aca9e0847911ed832e158c525b3390600090a1565b600160a060020a0381166000908152600560205260409020545b919050565b60035460a060020a900460ff1681565b600081815260096020526040902054600160a060020a0316801515610acd57600080fd5b600080600080610b146115cb565b60035460009060e060020a900463ffffffff168110610b3257600080fd5b662386f26fc10000341015610b4657600080fd5b600160a060020a03331660009081526005602052604081205411610b6957600080fd5b610b71611489565b9350610b828463ffffffff166114d9565b9250603260ff841610610b9457600080fd5b600160068460ff16815481101515610ba857fe5b90600052602060002090600891828204019190066004029054906101000a900463ffffffff160360068460ff16815481101515610be157fe5b90600052602060002090600891828204019190066004026101000a81548163ffffffff021916908363ffffffff16021790555060016003601c9054906101000a900463ffffffff16036003601c6101000a81548163ffffffff021916908363ffffffff16021790555060c0604051908101604052808460ff16815260200189898080601f0160208091040260200160405190810160405280939291908181526020018383808284378201915050505050508152602001610cd08a8a8080601f01602080910402602001604051908101604052809392919081815260200183838082843750611557945050505050565b81524267ffffffffffffffff166020808301919091526000604083018190526060909201829052600b805460018082018084559290945284517f0175b7a638427703f0dbe7bb9bbf987a2551717b34e79f33b5b1008d1fa01db960059092029182019081558584015180519698509495929488949193610d77937f0175b7a638427703f0dbe7bb9bbf987a2551717b34e79f33b5b1008d1fa01dba01929190910190611616565b5060408281015160028301556060830151600383018054608086015167ffffffffffffffff1990911667ffffffffffffffff938416176fffffffffffffffff0000000000000000191668010000000000000000939091169290920291909117905560a09092015160049091015533600160a060020a0316600081815260086020908152838220805460010190556005815283822080546000190190559490930383526009909352908190208054600160a060020a0319169092179091559190910151919791965090945050505050565b600160a060020a031660009081526008602052604090205490565b600354760100000000000000000000000000000000000000000000900461ffff1681565b6003547801000000000000000000000000000000000000000000000000900463ffffffff1681565b60035433600160a060020a03908116911614610ec957600080fd5b60035460a060020a900460ff1615610ee057600080fd5b6003805474ff0000000000000000000000000000000000000000191660a060020a1790556040517f6985a02210a168e66602d3235cb6db0e70f92b3ba4d376a33c0f3d9434bff62590600090a1565b600354600160a060020a031681565b6003547501000000000000000000000000000000000000000000900460ff1681565b60408051808201909152600381527f47454d0000000000000000000000000000000000000000000000000000000000602082015281565b80610fa133610ab3565b1015610fac57600080fd5b600160a060020a03338116600090815260056020526040808220805485900390559390911681529190912080549091019055565b60045467ffffffffffffffff1681565b60005433600160a060020a0390811691161461100b57600080fd5b600160a060020a038116151561102057600080fd5b60018054600160a060020a031916600160a060020a0392909216919091179055565b60005433600160a060020a039081169116148061106d575060015433600160a060020a039081169116145b80611086575060025433600160a060020a039081169116145b151561109157600080fd5b6003805477ffffff00000000000000000000000000000000000000000019169055565b60035460a060020a900460ff16156110cb57600080fd5b600160a060020a03821615156110e057600080fd5b30600160a060020a031682600160a060020a03161415151561110157600080fd5b61110b3382611351565b151561111657600080fd5b6111213383836113bf565b5050565b600254600160a060020a031681565b606060006060600080600061114887610e47565b94508415156111675760408051600081526020810190915295506111fc565b84604051908082528060200260200182016040528015611191578160200160208202803883390190505b50935061119c6108d9565b925060009150600090505b8281116111f857600081815260096020526040902054600160a060020a03888116911614156111f0578084838151811015156111df57fe5b602090810290910101526001909101905b6001016111a7565b8395505b5050505050919050565b600960205260009081526040902054600160a060020a031681565b60035433600160a060020a0390811691161461123c57600080fd5b600160a060020a038116151561125157600080fd5b600354604051600160a060020a038084169216907f8be0079c531659141344cd1fd0a4f28419497f9722a3daafe3b4186f6b6457e090600090a360038054600160a060020a031916600160a060020a0392909216919091179055565b60005433600160a060020a039081169116146112c857600080fd5b600160a060020a03811615156112dd57600080fd5b60028054600160a060020a031916600160a060020a0392909216919091179055565b60005433600160a060020a0390811691161461131a57600080fd5b600160a060020a038116151561132f57600080fd5b60008054600160a060020a031916600160a060020a0392909216919091179055565b600090815260096020526040902054600160a060020a0391821691161490565b6000918252600a60205260409091208054600160a060020a031916600160a060020a03909216919091179055565b6000908152600a6020526040902054600160a060020a0391821691161490565b600160a060020a03808416600081815260086020908152604080832080546000190190559386168083528483208054600101905585835260098252918490208054600160a060020a031916831790558351858152935191937fddf252ad1be2c89b69c2b068fc378daa952ba7f163c4a11628f55a4df523b3ef929081900390910190a3505050565b600060076005830481548110151561145b57fe5b6000918252602090912060048204015460039091166008026101000a900467ffffffffffffffff1692915050565b6003546040805142815244602082015281519081900390910190206000917801000000000000000000000000000000000000000000000000900463ffffffff16908115156114d357fe5b06905090565b60008060ff81805b60065460ff8316101561154d576006805460ff84169081106114ff57fe5b90600052602060002090600891828204019190066004029054906101000a900463ffffffff1690508084019350858463ffffffff1611156115425781925061154d565b6001909101906114e1565b5090949350505050565b600080826040518082805190602001908083835b6020831061158a5780518252601f19909201916020918201910161156b565b5181516020939093036101000a600019018019909116921691909117905260405192018290039091209350606492508391506115c39050565b069392505050565b60c060405190810160405280600081526020016060815260200160008152602001600067ffffffffffffffff168152602001600067ffffffffffffffff168152602001600081525090565b828054600181600116156101000203166002900490600052602060002090601f016020900481019282601f1061165757805160ff1916838001178555611684565b82800160010185558215611684579182015b82811115611684578251825591602001919060010190611669565b50611690929150611694565b5090565b6108d691905b80821115611690576000815560010161169a5600a165627a7a723058200ad9fdb01c2d2f712eb9bfa3ce6f02af5a325554b89c87ad863366d05b0379ea0029",
  "source": "pragma solidity ^0.4.11;\n\nimport \"./ERC721.sol\";\nimport \"./MineralFactory.sol\";\n\ncontract MineralOwnership is MineralFactory, ERC721 {\n\n    string public constant name = \"CryptoMinerals\";\n    string public constant symbol = \"GEM\";\n\n    function _owns(address _claimant, uint256 _gemId) internal view returns (bool) {\n        return gemIndexToOwner[_gemId] == _claimant;\n    }\n\n    // Assigns ownership of a specific gem to an address.\n    function _transfer(address _from, address _to, uint256 _gemId) internal {\n        ownerGemCount[_from]--;\n        ownerGemCount[_to]++;\n        gemIndexToOwner[_gemId] = _to;\n        Transfer(_from, _to, _gemId);\n    }\n\n    function _approvedFor(address _claimant, uint256 _gemId) internal view returns (bool) {\n        return gemIndexToApproved[_gemId] == _claimant;\n    }\n\n    function _approve(uint256 _gemId, address _approved) internal {\n        gemIndexToApproved[_gemId] = _approved;\n    }\n\n    // Required for ERC-721 compliance\n    function balanceOf(address _owner) public view returns (uint256 count) {\n        return ownerGemCount[_owner];\n    }\n\n    // Required for ERC-721 compliance.\n    function transfer(address _to, uint256 _gemId) external whenNotPaused {\n        require(_to != address(0));\n        require(_to != address(this));\n\n        require(_owns(msg.sender, _gemId));\n        _transfer(msg.sender, _to, _gemId);\n    }\n\n    // Required for ERC-721 compliance.\n    function approve(address _to, uint256 _gemId) external whenNotPaused {\n        require(_owns(msg.sender, _gemId));\n        _approve(_gemId, _to);\n        Approval(msg.sender, _to, _gemId);\n    }\n\n    // Required for ERC-721 compliance.\n    function transferFrom(address _from, address _to, uint256 _gemId) external whenNotPaused {\n        require(_to != address(0));\n        require(_to != address(this));\n\n        require(_approvedFor(msg.sender, _gemId));\n        require(_owns(_from, _gemId));\n\n        _transfer(_from, _to, _gemId);\n    }\n\n    // Required for ERC-721 compliance.\n    function totalSupply() public view returns (uint) {\n        return TOTAL_SUPPLY - gemsLeft;\n    }\n\n    // Required for ERC-721 compliance.\n    function ownerOf(uint256 _gemId) external view returns (address owner) {\n        owner = gemIndexToOwner[_gemId];\n        require(owner != address(0));\n    }\n\n    // Required for ERC-721 compliance.\n    function implementsERC721() public view returns (bool implementsERC721) {\n        return true;\n    }\n\n    function gemsOfOwner(address _owner) external view returns(uint256[] ownerGems) {\n        uint256 gemCount = balanceOf(_owner);\n\n        if (gemCount == 0) {\n            return new uint256[](0);\n        } else {\n            uint256[] memory result = new uint256[](gemCount);\n            uint256 totalGems = totalSupply();\n            uint256 resultIndex = 0;\n            uint256 gemId;\n\n            for (gemId = 0; gemId <= totalGems; gemId++) {\n                if (gemIndexToOwner[gemId] == _owner) {\n                    result[resultIndex] = gemId;\n                    resultIndex++;\n                }\n            }\n\n            return result;\n        }\n    }\n}\n",
  "sourcePath": "/Users/jakub/GitHub/cryptominerals-beta/contracts/MineralOwnership.sol",
  "compiler": {
    "name": "solc",
    "version": "0.4.23+commit.124ca40d.Emscripten.clang"
  },
  "schemaVersion": "2.0.0",
  "updatedAt": "2018-07-10T20:32:33.111Z"
}