{
  "contractName": "MineralFactory",
  "abi": [
    {
      "constant": true,
      "inputs": [],
      "name": "addressFin",
      "outputs": [
        {
          "name": "",
          "type": "address"
        }
      ],
      "payable": false,
      "stateMutability": "view",
      "type": "function"
    },
    {
      "constant": true,
      "inputs": [
        {
          "name": "",
          "type": "uint256"
        }
      ],
      "name": "gemIndexToApproved",
      "outputs": [
        {
          "name": "",
          "type": "address"
        }
      ],
      "payable": false,
      "stateMutability": "view",
      "type": "function"
    },
    {
      "constant": true,
      "inputs": [],
      "name": "addressDev",
      "outputs": [
        {
          "name": "",
          "type": "address"
        }
      ],
      "payable": false,
      "stateMutability": "view",
      "type": "function"
    },
    {
      "constant": true,
      "inputs": [
        {
          "name": "",
          "type": "uint256"
        }
      ],
      "name": "gemstones",
      "outputs": [
        {
          "name": "category",
          "type": "uint256"
        },
        {
          "name": "name",
          "type": "string"
        },
        {
          "name": "colour",
          "type": "uint256"
        },
        {
          "name": "extractionTime",
          "type": "uint64"
        },
        {
          "name": "polishedTime",
          "type": "uint64"
        },
        {
          "name": "price",
          "type": "uint256"
        }
      ],
      "payable": false,
      "stateMutability": "view",
      "type": "function"
    },
    {
      "constant": false,
      "inputs": [],
      "name": "unpause",
      "outputs": [],
      "payable": false,
      "stateMutability": "nonpayable",
      "type": "function"
    },
    {
      "constant": true,
      "inputs": [
        {
          "name": "_owner",
          "type": "address"
        }
      ],
      "name": "balanceOfOre",
      "outputs": [
        {
          "name": "_balance",
          "type": "uint256"
        }
      ],
      "payable": false,
      "stateMutability": "view",
      "type": "function"
    },
    {
      "constant": true,
      "inputs": [],
      "name": "paused",
      "outputs": [
        {
          "name": "",
          "type": "bool"
        }
      ],
      "payable": false,
      "stateMutability": "view",
      "type": "function"
    },
    {
      "constant": true,
      "inputs": [],
      "name": "discounts",
      "outputs": [
        {
          "name": "",
          "type": "uint16"
        }
      ],
      "payable": false,
      "stateMutability": "view",
      "type": "function"
    },
    {
      "constant": true,
      "inputs": [],
      "name": "oresLeft",
      "outputs": [
        {
          "name": "",
          "type": "uint32"
        }
      ],
      "payable": false,
      "stateMutability": "view",
      "type": "function"
    },
    {
      "constant": false,
      "inputs": [],
      "name": "pause",
      "outputs": [],
      "payable": false,
      "stateMutability": "nonpayable",
      "type": "function"
    },
    {
      "constant": true,
      "inputs": [],
      "name": "owner",
      "outputs": [
        {
          "name": "",
          "type": "address"
        }
      ],
      "payable": false,
      "stateMutability": "view",
      "type": "function"
    },
    {
      "constant": true,
      "inputs": [],
      "name": "isPresale",
      "outputs": [
        {
          "name": "",
          "type": "bool"
        }
      ],
      "payable": false,
      "stateMutability": "view",
      "type": "function"
    },
    {
      "constant": false,
      "inputs": [
        {
          "name": "_recipient",
          "type": "address"
        },
        {
          "name": "amount",
          "type": "uint256"
        }
      ],
      "name": "sendOre",
      "outputs": [],
      "payable": true,
      "stateMutability": "payable",
      "type": "function"
    },
    {
      "constant": true,
      "inputs": [],
      "name": "orePrice",
      "outputs": [
        {
          "name": "",
          "type": "uint64"
        }
      ],
      "payable": false,
      "stateMutability": "view",
      "type": "function"
    },
    {
      "constant": false,
      "inputs": [
        {
          "name": "_newFinance",
          "type": "address"
        }
      ],
      "name": "setFinance",
      "outputs": [],
      "payable": false,
      "stateMutability": "nonpayable",
      "type": "function"
    },
    {
      "constant": false,
      "inputs": [],
      "name": "endPresale",
      "outputs": [],
      "payable": false,
      "stateMutability": "nonpayable",
      "type": "function"
    },
    {
      "constant": true,
      "inputs": [],
      "name": "addressOps",
      "outputs": [
        {
          "name": "",
          "type": "address"
        }
      ],
      "payable": false,
      "stateMutability": "view",
      "type": "function"
    },
    {
      "constant": true,
      "inputs": [
        {
          "name": "",
          "type": "uint256"
        }
      ],
      "name": "gemIndexToOwner",
      "outputs": [
        {
          "name": "",
          "type": "address"
        }
      ],
      "payable": false,
      "stateMutability": "view",
      "type": "function"
    },
    {
      "constant": false,
      "inputs": [
        {
          "name": "newOwner",
          "type": "address"
        }
      ],
      "name": "transferOwnership",
      "outputs": [],
      "payable": false,
      "stateMutability": "nonpayable",
      "type": "function"
    },
    {
      "constant": false,
      "inputs": [
        {
          "name": "_newOperation",
          "type": "address"
        }
      ],
      "name": "setOperation",
      "outputs": [],
      "payable": false,
      "stateMutability": "nonpayable",
      "type": "function"
    },
    {
      "constant": false,
      "inputs": [
        {
          "name": "_newDeveloper",
          "type": "address"
        }
      ],
      "name": "setDeveloper",
      "outputs": [],
      "payable": false,
      "stateMutability": "nonpayable",
      "type": "function"
    },
    {
      "anonymous": false,
      "inputs": [],
      "name": "Pause",
      "type": "event"
    },
    {
      "anonymous": false,
      "inputs": [],
      "name": "Unpause",
      "type": "event"
    },
    {
      "anonymous": false,
      "inputs": [
        {
          "indexed": true,
          "name": "previousOwner",
          "type": "address"
        },
        {
          "indexed": true,
          "name": "newOwner",
          "type": "address"
        }
      ],
      "name": "OwnershipTransferred",
      "type": "event"
    },
    {
      "anonymous": false,
      "inputs": [
        {
          "indexed": false,
          "name": "newContract",
          "type": "address"
        }
      ],
      "name": "ContractUpgrade",
      "type": "event"
    },
    {
      "constant": false,
      "inputs": [
        {
          "name": "_name",
          "type": "string"
        }
      ],
      "name": "extractOre",
      "outputs": [
        {
          "name": "",
          "type": "uint8"
        },
        {
          "name": "",
          "type": "uint256"
        }
      ],
      "payable": true,
      "stateMutability": "payable",
      "type": "function"
    },
    {
      "constant": false,
      "inputs": [
        {
          "name": "_gemId",
          "type": "uint256"
        }
      ],
      "name": "polishRoughStone",
      "outputs": [],
      "payable": true,
      "stateMutability": "payable",
      "type": "function"
    }
  ],
  "bytecode": "0x60038054750100000000000000000000000000000000000000000060a060020a61ffff02199091161760b060020a61ffff0219167727100000000000000000000000000000000000000000000017905560048054662386f26fc100006001604060020a03199091161790556106c06040526122b0608090815261262860a0526129f860c052612e2b60e0526132c961010052614b68610120526152f261014052615b3e6101605261645e61018052616e676101a05261711c6101c052617c6c6101e0526188dd6102005261968d6102205261a59b6102405261a9aa6102605261baa26102805261cd4c6102a05261e1d36102c05261f8686102e05261fe8061030052620117f361032052620133f261034052620152bd610360526201749d6103805262017dc06103a0526201a3ed6103c0526201cdeb6103e0526201fc1c6104005262022eec6104205262023ca061044052620275e3610460526202b4e1610480526202fa2a6104a052620346626104c05262035af06104e0526203b0d56105005262040f516105205262047740610540526204e993610560526205086961058052620589406105a052620616fa6105c0526206b2e06105e05262075e5d6106005262078c9e6106205262084de1610640526209227761066052620a0c5061068052620b0da16106a052620001f99060069060326200039b565b506040805161014081018252671bc16d674ec8000081526718fae27693b4000060208201526716345785d8a000009181019190915267120a871cc00200006060820152670de0b6b3a76400006080820152670b1a2bc2ec50000060a0820152670853a0d2313c000060c082015267058d15e17628000060e08201526702c68af0bb14000061010082015266b1a2bc2ec50000610120820152620002a190600790600a62000450565b506003805460008054600160a060020a0319908116600160a060020a033381169483168517831685179081169182178455600180548416831790556002805490931690911782557e87a23800000000000000000000000000000000000000000000000000000000600160e060020a037a87a23800000000000000000000000000000000000000000000000060c060020a63ffffffff021993841617161780865593835260056020526040909220805478010000000000000000000000000000000000000000000000009485900463ffffffff9081168490048116909101909155845484810482169290920416909202911617905562000559565b828054828255906000526020600020906007016008900481019282156200043e5791602002820160005b838211156200040a57835183826101000a81548163ffffffff021916908362ffffff1602179055509260200192600401602081600301049283019260010302620003c5565b80156200043c5782816101000a81549063ffffffff02191690556004016020816003010492830192600103026200040a565b505b506200044c9291506200050b565b5090565b82805482825590600052602060002090600301600490048101928215620004fd5791602002820160005b83821115620004c657835183826101000a8154816001604060020a0302191690836001604060020a0316021790555092602001926008016020816007010492830192600103026200047a565b8015620004fb5782816101000a8154906001604060020a030219169055600801602081600701049283019260010302620004c6565b505b506200044c92915062000532565b6200052f91905b808211156200044c57805463ffffffff1916815560010162000512565b90565b6200052f91905b808211156200044c5780546001604060020a031916815560010162000539565b61112880620005696000396000f3006080604052600436106101325763ffffffff7c010000000000000000000000000000000000000000000000000000000060003504166303d76547811461013757806306fde29d1461016857806309553b28146101805780630f1833bb14610195578063319dac48146102545780633f4ba83a146102615780634cf8dce7146102765780635c975abb146102a95780636fcbb546146102d257806375af65d11461030257806376c2c0aa1461032e5780638456cb591461035c5780638da5cb5b1461037157806395364a84146103865780639aa932241461039b5780639b2d2cbd146103b25780639b8d3064146103e4578063a43be57b14610405578063aee2988d1461041a578063c0c8d66a1461042f578063f2fde38b14610447578063f7f3815c14610468578063ff70fa4914610489575b600080fd5b34801561014357600080fd5b5061014c6104aa565b60408051600160a060020a039092168252519081900360200190f35b34801561017457600080fd5b5061014c6004356104b9565b34801561018c57600080fd5b5061014c6104d4565b3480156101a157600080fd5b506101ad6004356104e3565b6040805187815290810185905267ffffffffffffffff80851660608301528316608082015260a0810182905260c06020808301828152885192840192909252875160e084019189019080838360005b838110156102145781810151838201526020016101fc565b50505050905090810190601f1680156102415780820380516001836020036101000a031916815260200191505b5097505050505050505060405180910390f35b61025f6004356105dd565b005b34801561026d57600080fd5b5061025f610699565b34801561028257600080fd5b50610297600160a060020a0360043516610726565b60408051918252519081900360200190f35b3480156102b557600080fd5b506102be610741565b604080519115158252519081900360200190f35b6102e56004803560248101910135610762565b6040805160ff909316835260208301919091528051918290030190f35b34801561030e57600080fd5b50610317610ac9565b6040805161ffff9092168252519081900360200190f35b34801561033a57600080fd5b50610343610aed565b6040805163ffffffff9092168252519081900360200190f35b34801561036857600080fd5b5061025f610b15565b34801561037d57600080fd5b5061014c610bb8565b34801561039257600080fd5b506102be610bc7565b61025f600160a060020a0360043516602435610be9565b3480156103be57600080fd5b506103c7610c32565b6040805167ffffffffffffffff9092168252519081900360200190f35b3480156103f057600080fd5b5061025f600160a060020a0360043516610c42565b34801561041157600080fd5b5061025f610ca1565b34801561042657600080fd5b5061014c610d13565b34801561043b57600080fd5b5061014c600435610d22565b34801561045357600080fd5b5061025f600160a060020a0360043516610d3d565b34801561047457600080fd5b5061025f600160a060020a0360043516610dd6565b34801561049557600080fd5b5061025f600160a060020a0360043516610e35565b600154600160a060020a031681565b600a60205260009081526040902054600160a060020a031681565b600054600160a060020a031681565b600b8054829081106104f157fe5b9060005260206000209060050201600091509050806000015490806001018054600181600116156101000203166002900480601f0160208091040260200160405190810160405280929190818152602001828054600181600116156101000203166002900480156105a35780601f10610578576101008083540402835291602001916105a3565b820191906000526020600020905b81548152906001019060200180831161058657829003601f168201915b505050600284015460038501546004909501549394909367ffffffffffffffff808316945068010000000000000000909204909116915086565b60008181526009602052604081205434919033600160a060020a0390811691161461060757600080fd5b600b80548490811061061557fe5b60009182526020909120600590910201600381015490915068010000000000000000900467ffffffffffffffff161561064d57600080fd5b805461065890610e94565b82101561066457600080fd5b60030180546fffffffffffffffff00000000000000001916680100000000000000004267ffffffffffffffff16021790555050565b60035433600160a060020a039081169116146106b457600080fd5b60035474010000000000000000000000000000000000000000900460ff1615156106dd57600080fd5b6003805474ff0000000000000000000000000000000000000000191690556040517f7805862f689e2f13df9f062ff482ad3ad112aca9e0847911ed832e158c525b3390600090a1565b600160a060020a031660009081526005602052604090205490565b60035474010000000000000000000000000000000000000000900460ff1681565b600080600080610770611019565b6003546000907c0100000000000000000000000000000000000000000000000000000000900463ffffffff1681106107a757600080fd5b662386f26fc100003410156107bb57600080fd5b600160a060020a033316600090815260056020526040812054116107de57600080fd5b6107e6610ed6565b93506107f78463ffffffff16610f27565b9250603260ff84161061080957600080fd5b600160068460ff1681548110151561081d57fe5b90600052602060002090600891828204019190066004029054906101000a900463ffffffff160360068460ff1681548110151561085657fe5b90600052602060002090600891828204019190066004026101000a81548163ffffffff021916908363ffffffff16021790555060016003601c9054906101000a900463ffffffff16036003601c6101000a81548163ffffffff021916908363ffffffff16021790555060c0604051908101604052808460ff16815260200189898080601f01602080910402602001604051908101604052809392919081815260200183838082843782019150505050505081526020016109458a8a8080601f01602080910402602001604051908101604052809392919081815260200183838082843750610fa5945050505050565b81524267ffffffffffffffff166020808301919091526000604083018190526060909201829052600b805460018082018084559290945284517f0175b7a638427703f0dbe7bb9bbf987a2551717b34e79f33b5b1008d1fa01db9600590920291820190815585840151805196985094959294889491936109ec937f0175b7a638427703f0dbe7bb9bbf987a2551717b34e79f33b5b1008d1fa01dba01929190910190611064565b5060408281015160028301556060830151600383018054608086015167ffffffffffffffff1990911667ffffffffffffffff938416176fffffffffffffffff0000000000000000191668010000000000000000939091169290920291909117905560a09092015160049091015533600160a060020a031660008181526008602090815283822080546001019055600581528382208054600019019055949093038352600990935290819020805473ffffffffffffffffffffffffffffffffffffffff19169092179091559190910151919791965090945050505050565b600354760100000000000000000000000000000000000000000000900461ffff1681565b6003547801000000000000000000000000000000000000000000000000900463ffffffff1681565b60035433600160a060020a03908116911614610b3057600080fd5b60035474010000000000000000000000000000000000000000900460ff1615610b5857600080fd5b6003805474ff00000000000000000000000000000000000000001916740100000000000000000000000000000000000000001790556040517f6985a02210a168e66602d3235cb6db0e70f92b3ba4d376a33c0f3d9434bff62590600090a1565b600354600160a060020a031681565b6003547501000000000000000000000000000000000000000000900460ff1681565b80610bf333610726565b1015610bfe57600080fd5b600160a060020a03338116600090815260056020526040808220805485900390559390911681529190912080549091019055565b60045467ffffffffffffffff1681565b60005433600160a060020a03908116911614610c5d57600080fd5b600160a060020a0381161515610c7257600080fd5b6001805473ffffffffffffffffffffffffffffffffffffffff1916600160a060020a0392909216919091179055565b60005433600160a060020a0390811691161480610ccc575060015433600160a060020a039081169116145b80610ce5575060025433600160a060020a039081169116145b1515610cf057600080fd5b6003805477ffffff00000000000000000000000000000000000000000019169055565b600254600160a060020a031681565b600960205260009081526040902054600160a060020a031681565b60035433600160a060020a03908116911614610d5857600080fd5b600160a060020a0381161515610d6d57600080fd5b600354604051600160a060020a038084169216907f8be0079c531659141344cd1fd0a4f28419497f9722a3daafe3b4186f6b6457e090600090a36003805473ffffffffffffffffffffffffffffffffffffffff1916600160a060020a0392909216919091179055565b60005433600160a060020a03908116911614610df157600080fd5b600160a060020a0381161515610e0657600080fd5b6002805473ffffffffffffffffffffffffffffffffffffffff1916600160a060020a0392909216919091179055565b60005433600160a060020a03908116911614610e5057600080fd5b600160a060020a0381161515610e6557600080fd5b6000805473ffffffffffffffffffffffffffffffffffffffff1916600160a060020a0392909216919091179055565b6000600760058304815481101515610ea857fe5b6000918252602090912060048204015460039091166008026101000a900467ffffffffffffffff1692915050565b6003546040805142815244602082015281519081900390910190206000917801000000000000000000000000000000000000000000000000900463ffffffff1690811515610f2057fe5b0690505b90565b60008060ff81805b60065460ff83161015610f9b576006805460ff8416908110610f4d57fe5b90600052602060002090600891828204019190066004029054906101000a900463ffffffff1690508084019350858463ffffffff161115610f9057819250610f9b565b600190910190610f2f565b5090949350505050565b600080826040518082805190602001908083835b60208310610fd85780518252601f199092019160209182019101610fb9565b5181516020939093036101000a600019018019909116921691909117905260405192018290039091209350606492508391506110119050565b069392505050565b60c060405190810160405280600081526020016060815260200160008152602001600067ffffffffffffffff168152602001600067ffffffffffffffff168152602001600081525090565b828054600181600116156101000203166002900490600052602060002090601f016020900481019282601f106110a557805160ff19168380011785556110d2565b828001600101855582156110d2579182015b828111156110d25782518255916020019190600101906110b7565b506110de9291506110e2565b5090565b610f2491905b808211156110de57600081556001016110e85600a165627a7a72305820d0102a6be76337537a69aa12987757440626037c28253ca348b2ce0394e1ac350029",
  "source": "pragma solidity ^0.4.11;\n\nimport \"./MineralBase.sol\";\n\ncontract MineralFactory is MineralBase {\n\n    uint8 constant CATEGORY_COUNT = 50;\n    uint8 constant MODULUS = 100;\n    uint64 constant EXTRACT_PRICE = 1e16;\n\n    uint32[] mineralCounts = [\n        8880, 9768, 10744, 11819, 13001,\n        19304, 21234, 23358, 25694, 28263,\n        28956, 31852, 35037, 38541, 42395,\n        43434, 47778, 52556, 57811, 63592,\n        65152, 71667, 78834, 86717, 95389,\n        97728, 107501, 118251, 130076, 143084,\n        146592, 161251, 177377, 195114, 214626,\n        219888, 241877, 266065, 292672, 321939,\n        329833, 362816, 399098, 439008, 482909,\n        494750, 544225, 598647, 658512, 724385];\n\n    uint64[] polishingPrice = [\n        200e16, 180e16, 160e16, 130e16, 100e16,\n        80e16, 60e16, 40e16, 20e16, 5e16];\n\n    mapping(address => uint) internal ownerGemCount;\n    mapping (uint256 => address) public gemIndexToOwner;\n    mapping (uint256 => address) public gemIndexToApproved;\n\n    Gemstone[] public gemstones;\n\n    struct Gemstone {\n        uint category;\n        string name;\n        uint256 colour;\n        uint64 extractionTime;\n        uint64 polishedTime;\n        uint256 price;\n    }\n\n    function _getRandomMineralId() private view returns (uint32) {\n        return uint32(uint256(keccak256(block.timestamp, block.difficulty))%oresLeft);\n    }\n\n     function _getPolishingPrice(uint _category) private view returns (uint) {\n        return polishingPrice[_category / 5];\n    }\n\n    function _generateRandomHash(string _str) private view returns (uint) {\n        uint rand = uint(keccak256(_str));\n        return rand % MODULUS;\n    }\n\n    function _getCategoryIdx(uint position) private view returns (uint8) {\n        uint32 tempSum = 0;\n        //Chosen category index, 255 for no category selected - when we are out of minerals\n        uint8 chosenIdx = 255;\n\n        for (uint8 i = 0; i < mineralCounts.length; i++) {\n            uint32 value = mineralCounts[i];\n            tempSum += value;\n            if (tempSum > position) {\n                //Mineral counts is 50, so this is safe to do\n                chosenIdx = i;\n                break;\n            }\n        }\n        return chosenIdx;\n    }\n\n    function extractOre(string _name) external payable returns (uint8, uint256) {\n        require(gemsLeft > 0);\n        require(msg.value >= EXTRACT_PRICE);\n        require(ownerOreCount[msg.sender] > 0);\n\n        uint32 randomNumber = _getRandomMineralId();\n        uint8 categoryIdx = _getCategoryIdx(randomNumber);\n\n        require(categoryIdx < CATEGORY_COUNT);\n\n        //Decrease the mineral count for the category\n        mineralCounts[categoryIdx] = mineralCounts[categoryIdx] - 1;\n        //Decrease total mineral count\n        gemsLeft = gemsLeft - 1;\n\n        Gemstone memory _stone = Gemstone({\n            category : categoryIdx,\n            name : _name,\n            colour : _generateRandomHash(_name),\n            extractionTime : uint64(block.timestamp),\n            polishedTime : 0,\n            price : 0\n        });\n\n        uint256 newStoneId = gemstones.push(_stone) - 1;\n\n        ownerGemCount[msg.sender]++;\n        ownerOreCount[msg.sender]--;\n        gemIndexToOwner[newStoneId] = msg.sender;\n\n        return (categoryIdx, _stone.colour);\n    }\n\n    function polishRoughStone(uint256 _gemId) external payable {\n        uint gainedWei = msg.value;\n        require(gemIndexToOwner[_gemId] == msg.sender);\n\n        Gemstone storage gem = gemstones[_gemId];\n        require(gem.polishedTime == 0);\n        require(gainedWei >= _getPolishingPrice(gem.category));\n\n        gem.polishedTime = uint64(block.timestamp);\n    }\n}\n",
  "sourcePath": "/Users/jakub/GitHub/cryptominerals-beta/contracts/MineralFactory.sol",
  "compiler": {
    "name": "solc",
    "version": "0.4.23+commit.124ca40d.Emscripten.clang"
  },
  "schemaVersion": "2.0.0",
  "updatedAt": "2018-07-10T20:32:33.107Z"
}