{
  "contractName": "MineralMarket",
  "abi": [
    {
      "constant": true,
      "inputs": [],
      "name": "addressFin",
      "outputs": [
        {
          "name": "",
          "type": "address"
        }
      ],
      "payable": false,
      "stateMutability": "view",
      "type": "function"
    },
    {
      "constant": true,
      "inputs": [],
      "name": "name",
      "outputs": [
        {
          "name": "",
          "type": "string"
        }
      ],
      "payable": false,
      "stateMutability": "view",
      "type": "function"
    },
    {
      "constant": true,
      "inputs": [
        {
          "name": "",
          "type": "uint256"
        }
      ],
      "name": "gemIndexToApproved",
      "outputs": [
        {
          "name": "",
          "type": "address"
        }
      ],
      "payable": false,
      "stateMutability": "view",
      "type": "function"
    },
    {
      "constant": true,
      "inputs": [],
      "name": "addressDev",
      "outputs": [
        {
          "name": "",
          "type": "address"
        }
      ],
      "payable": false,
      "stateMutability": "view",
      "type": "function"
    },
    {
      "constant": false,
      "inputs": [
        {
          "name": "_to",
          "type": "address"
        },
        {
          "name": "_gemId",
          "type": "uint256"
        }
      ],
      "name": "approve",
      "outputs": [],
      "payable": false,
      "stateMutability": "nonpayable",
      "type": "function"
    },
    {
      "constant": true,
      "inputs": [
        {
          "name": "",
          "type": "uint256"
        }
      ],
      "name": "gemstones",
      "outputs": [
        {
          "name": "category",
          "type": "uint256"
        },
        {
          "name": "name",
          "type": "string"
        },
        {
          "name": "colour",
          "type": "uint256"
        },
        {
          "name": "extractionTime",
          "type": "uint64"
        },
        {
          "name": "polishedTime",
          "type": "uint64"
        },
        {
          "name": "price",
          "type": "uint256"
        }
      ],
      "payable": false,
      "stateMutability": "view",
      "type": "function"
    },
    {
      "constant": true,
      "inputs": [],
      "name": "implementsERC721",
      "outputs": [
        {
          "name": "implementsERC721",
          "type": "bool"
        }
      ],
      "payable": false,
      "stateMutability": "view",
      "type": "function"
    },
    {
      "constant": true,
      "inputs": [],
      "name": "totalSupply",
      "outputs": [
        {
          "name": "",
          "type": "uint256"
        }
      ],
      "payable": false,
      "stateMutability": "view",
      "type": "function"
    },
    {
      "constant": false,
      "inputs": [
        {
          "name": "_from",
          "type": "address"
        },
        {
          "name": "_to",
          "type": "address"
        },
        {
          "name": "_gemId",
          "type": "uint256"
        }
      ],
      "name": "transferFrom",
      "outputs": [],
      "payable": false,
      "stateMutability": "nonpayable",
      "type": "function"
    },
    {
      "constant": false,
      "inputs": [
        {
          "name": "_gemId",
          "type": "uint256"
        }
      ],
      "name": "polishRoughStone",
      "outputs": [],
      "payable": true,
      "stateMutability": "payable",
      "type": "function"
    },
    {
      "constant": false,
      "inputs": [],
      "name": "unpause",
      "outputs": [],
      "payable": false,
      "stateMutability": "nonpayable",
      "type": "function"
    },
    {
      "constant": true,
      "inputs": [
        {
          "name": "_owner",
          "type": "address"
        }
      ],
      "name": "balanceOfOre",
      "outputs": [
        {
          "name": "_balance",
          "type": "uint256"
        }
      ],
      "payable": false,
      "stateMutability": "view",
      "type": "function"
    },
    {
      "constant": true,
      "inputs": [],
      "name": "paused",
      "outputs": [
        {
          "name": "",
          "type": "bool"
        }
      ],
      "payable": false,
      "stateMutability": "view",
      "type": "function"
    },
    {
      "constant": true,
      "inputs": [
        {
          "name": "_gemId",
          "type": "uint256"
        }
      ],
      "name": "ownerOf",
      "outputs": [
        {
          "name": "owner",
          "type": "address"
        }
      ],
      "payable": false,
      "stateMutability": "view",
      "type": "function"
    },
    {
      "constant": false,
      "inputs": [
        {
          "name": "_name",
          "type": "string"
        }
      ],
      "name": "extractOre",
      "outputs": [
        {
          "name": "",
          "type": "uint8"
        },
        {
          "name": "",
          "type": "uint256"
        }
      ],
      "payable": true,
      "stateMutability": "payable",
      "type": "function"
    },
    {
      "constant": true,
      "inputs": [
        {
          "name": "_owner",
          "type": "address"
        }
      ],
      "name": "balanceOf",
      "outputs": [
        {
          "name": "count",
          "type": "uint256"
        }
      ],
      "payable": false,
      "stateMutability": "view",
      "type": "function"
    },
    {
      "constant": true,
      "inputs": [],
      "name": "discounts",
      "outputs": [
        {
          "name": "",
          "type": "uint16"
        }
      ],
      "payable": false,
      "stateMutability": "view",
      "type": "function"
    },
    {
      "constant": true,
      "inputs": [],
      "name": "oresLeft",
      "outputs": [
        {
          "name": "",
          "type": "uint32"
        }
      ],
      "payable": false,
      "stateMutability": "view",
      "type": "function"
    },
    {
      "constant": false,
      "inputs": [],
      "name": "pause",
      "outputs": [],
      "payable": false,
      "stateMutability": "nonpayable",
      "type": "function"
    },
    {
      "constant": true,
      "inputs": [],
      "name": "owner",
      "outputs": [
        {
          "name": "",
          "type": "address"
        }
      ],
      "payable": false,
      "stateMutability": "view",
      "type": "function"
    },
    {
      "constant": true,
      "inputs": [],
      "name": "isPresale",
      "outputs": [
        {
          "name": "",
          "type": "bool"
        }
      ],
      "payable": false,
      "stateMutability": "view",
      "type": "function"
    },
    {
      "constant": true,
      "inputs": [],
      "name": "symbol",
      "outputs": [
        {
          "name": "",
          "type": "string"
        }
      ],
      "payable": false,
      "stateMutability": "view",
      "type": "function"
    },
    {
      "constant": false,
      "inputs": [
        {
          "name": "_recipient",
          "type": "address"
        },
        {
          "name": "amount",
          "type": "uint256"
        }
      ],
      "name": "sendOre",
      "outputs": [],
      "payable": true,
      "stateMutability": "payable",
      "type": "function"
    },
    {
      "constant": true,
      "inputs": [],
      "name": "orePrice",
      "outputs": [
        {
          "name": "",
          "type": "uint64"
        }
      ],
      "payable": false,
      "stateMutability": "view",
      "type": "function"
    },
    {
      "constant": false,
      "inputs": [
        {
          "name": "_newFinance",
          "type": "address"
        }
      ],
      "name": "setFinance",
      "outputs": [],
      "payable": false,
      "stateMutability": "nonpayable",
      "type": "function"
    },
    {
      "constant": false,
      "inputs": [],
      "name": "endPresale",
      "outputs": [],
      "payable": false,
      "stateMutability": "nonpayable",
      "type": "function"
    },
    {
      "constant": false,
      "inputs": [
        {
          "name": "_to",
          "type": "address"
        },
        {
          "name": "_gemId",
          "type": "uint256"
        }
      ],
      "name": "transfer",
      "outputs": [],
      "payable": false,
      "stateMutability": "nonpayable",
      "type": "function"
    },
    {
      "constant": true,
      "inputs": [],
      "name": "addressOps",
      "outputs": [
        {
          "name": "",
          "type": "address"
        }
      ],
      "payable": false,
      "stateMutability": "view",
      "type": "function"
    },
    {
      "constant": true,
      "inputs": [
        {
          "name": "_owner",
          "type": "address"
        }
      ],
      "name": "gemsOfOwner",
      "outputs": [
        {
          "name": "ownerGems",
          "type": "uint256[]"
        }
      ],
      "payable": false,
      "stateMutability": "view",
      "type": "function"
    },
    {
      "constant": true,
      "inputs": [
        {
          "name": "",
          "type": "uint256"
        }
      ],
      "name": "gemIndexToOwner",
      "outputs": [
        {
          "name": "",
          "type": "address"
        }
      ],
      "payable": false,
      "stateMutability": "view",
      "type": "function"
    },
    {
      "constant": false,
      "inputs": [
        {
          "name": "newOwner",
          "type": "address"
        }
      ],
      "name": "transferOwnership",
      "outputs": [],
      "payable": false,
      "stateMutability": "nonpayable",
      "type": "function"
    },
    {
      "constant": false,
      "inputs": [
        {
          "name": "_newOperation",
          "type": "address"
        }
      ],
      "name": "setOperation",
      "outputs": [],
      "payable": false,
      "stateMutability": "nonpayable",
      "type": "function"
    },
    {
      "constant": false,
      "inputs": [
        {
          "name": "_newDeveloper",
          "type": "address"
        }
      ],
      "name": "setDeveloper",
      "outputs": [],
      "payable": false,
      "stateMutability": "nonpayable",
      "type": "function"
    },
    {
      "anonymous": false,
      "inputs": [
        {
          "indexed": true,
          "name": "_from",
          "type": "address"
        },
        {
          "indexed": true,
          "name": "_to",
          "type": "address"
        },
        {
          "indexed": false,
          "name": "_tokenId",
          "type": "uint256"
        }
      ],
      "name": "Transfer",
      "type": "event"
    },
    {
      "anonymous": false,
      "inputs": [
        {
          "indexed": true,
          "name": "_owner",
          "type": "address"
        },
        {
          "indexed": true,
          "name": "_approved",
          "type": "address"
        },
        {
          "indexed": false,
          "name": "_tokenId",
          "type": "uint256"
        }
      ],
      "name": "Approval",
      "type": "event"
    },
    {
      "anonymous": false,
      "inputs": [],
      "name": "Pause",
      "type": "event"
    },
    {
      "anonymous": false,
      "inputs": [],
      "name": "Unpause",
      "type": "event"
    },
    {
      "anonymous": false,
      "inputs": [
        {
          "indexed": true,
          "name": "previousOwner",
          "type": "address"
        },
        {
          "indexed": true,
          "name": "newOwner",
          "type": "address"
        }
      ],
      "name": "OwnershipTransferred",
      "type": "event"
    },
    {
      "anonymous": false,
      "inputs": [
        {
          "indexed": false,
          "name": "newContract",
          "type": "address"
        }
      ],
      "name": "ContractUpgrade",
      "type": "event"
    },
    {
      "constant": false,
      "inputs": [],
      "name": "buyOre",
      "outputs": [],
      "payable": true,
      "stateMutability": "payable",
      "type": "function"
    },
    {
      "constant": false,
      "inputs": [
        {
          "name": "_gemId",
          "type": "uint256"
        }
      ],
      "name": "buyGem",
      "outputs": [],
      "payable": true,
      "stateMutability": "payable",
      "type": "function"
    },
    {
      "constant": false,
      "inputs": [
        {
          "name": "_categoryIdx",
          "type": "uint256"
        },
        {
          "name": "_name",
          "type": "string"
        },
        {
          "name": "_colour",
          "type": "uint256"
        },
        {
          "name": "_polished",
          "type": "bool"
        },
        {
          "name": "_price",
          "type": "uint256"
        }
      ],
      "name": "mintGem",
      "outputs": [],
      "payable": false,
      "stateMutability": "nonpayable",
      "type": "function"
    },
    {
      "constant": false,
      "inputs": [
        {
          "name": "_gemId",
          "type": "uint256"
        },
        {
          "name": "_price",
          "type": "uint256"
        }
      ],
      "name": "setPrice",
      "outputs": [],
      "payable": false,
      "stateMutability": "nonpayable",
      "type": "function"
    },
    {
      "constant": false,
      "inputs": [],
      "name": "withdrawBalance",
      "outputs": [],
      "payable": false,
      "stateMutability": "nonpayable",
      "type": "function"
    }
  ],
  "bytecode": "0x60038054750100000000000000000000000000000000000000000060a060020a61ffff02199091161760b060020a61ffff0219167727100000000000000000000000000000000000000000000017905560048054662386f26fc100006001604060020a03199091161790556106c06040526122b0608090815261262860a0526129f860c052612e2b60e0526132c961010052614b68610120526152f261014052615b3e6101605261645e61018052616e676101a05261711c6101c052617c6c6101e0526188dd6102005261968d6102205261a59b6102405261a9aa6102605261baa26102805261cd4c6102a05261e1d36102c05261f8686102e05261fe8061030052620117f361032052620133f261034052620152bd610360526201749d6103805262017dc06103a0526201a3ed6103c0526201cdeb6103e0526201fc1c6104005262022eec6104205262023ca061044052620275e3610460526202b4e1610480526202fa2a6104a052620346626104c05262035af06104e0526203b0d56105005262040f516105205262047740610540526204e993610560526205086961058052620589406105a052620616fa6105c0526206b2e06105e05262075e5d6106005262078c9e6106205262084de1610640526209227761066052620a0c5061068052620b0da16106a052620001f99060069060326200039b565b506040805161014081018252671bc16d674ec8000081526718fae27693b4000060208201526716345785d8a000009181019190915267120a871cc00200006060820152670de0b6b3a76400006080820152670b1a2bc2ec50000060a0820152670853a0d2313c000060c082015267058d15e17628000060e08201526702c68af0bb14000061010082015266b1a2bc2ec50000610120820152620002a190600790600a62000450565b506003805460008054600160a060020a0319908116600160a060020a033381169483168517831685179081169182178455600180548416831790556002805490931690911782557e87a23800000000000000000000000000000000000000000000000000000000600160e060020a037a87a23800000000000000000000000000000000000000000000000060c060020a63ffffffff021993841617161780865593835260056020526040909220805478010000000000000000000000000000000000000000000000009485900463ffffffff9081168490048116909101909155845484810482169290920416909202911617905562000559565b828054828255906000526020600020906007016008900481019282156200043e5791602002820160005b838211156200040a57835183826101000a81548163ffffffff021916908362ffffff1602179055509260200192600401602081600301049283019260010302620003c5565b80156200043c5782816101000a81549063ffffffff02191690556004016020816003010492830192600103026200040a565b505b506200044c9291506200050b565b5090565b82805482825590600052602060002090600301600490048101928215620004fd5791602002820160005b83821115620004c657835183826101000a8154816001604060020a0302191690836001604060020a0316021790555092602001926008016020816007010492830192600103026200047a565b8015620004fb5782816101000a8154906001604060020a030219169055600801602081600701049283019260010302620004c6565b505b506200044c92915062000532565b6200052f91905b808211156200044c57805463ffffffff1916815560010162000512565b90565b6200052f91905b808211156200044c5780546001604060020a031916815560010162000539565b611d6580620005696000396000f3006080604052600436106101be5763ffffffff60e060020a6000350416630213856381146101c357806303d76547146101cd57806306fdde03146101fe57806306fde29d1461028857806309553b28146102a0578063095ea7b3146102b55780630f1833bb146102d95780631051db341461039857806318160ddd146103c157806323b872dd146103e8578063319dac48146104125780633f4ba83a1461041d57806348b49fa7146104325780634cf8dce71461043d5780635c975abb1461045e5780635fd8c710146104735780636352211e146104885780636fcbb546146104a057806370a08231146104d057806375af65d1146104f157806376c2c0aa1461051d5780638456cb591461054b5780638da5cb5b1461056057806395364a841461057557806395d89b411461058a5780639aa932241461059f5780639b2d2cbd146105b65780639b8d3064146105e8578063a43be57b14610609578063a9059cbb1461061e578063aee2988d14610642578063bc8d7a5114610657578063c0c8d66a146106c8578063cd575c32146106e0578063f2fde38b1461070f578063f7d9757714610730578063f7f3815c1461074b578063ff70fa491461076c575b600080fd5b6101cb61078d565b005b3480156101d957600080fd5b506101e26108d9565b60408051600160a060020a039092168252519081900360200190f35b34801561020a57600080fd5b506102136108e8565b6040805160208082528351818301528351919283929083019185019080838360005b8381101561024d578181015183820152602001610235565b50505050905090810190601f16801561027a5780820380516001836020036101000a031916815260200191505b509250505060405180910390f35b34801561029457600080fd5b506101e260043561091f565b3480156102ac57600080fd5b506101e261093a565b3480156102c157600080fd5b506101cb600160a060020a0360043516602435610949565b3480156102e557600080fd5b506102f16004356109ce565b6040805187815290810185905267ffffffffffffffff80851660608301528316608082015260a0810182905260c06020808301828152885192840192909252875160e084019189019080838360005b83811015610358578181015183820152602001610340565b50505050905090810190601f1680156103855780820380516001836020036101000a031916815260200191505b5097505050505050505060405180910390f35b3480156103a457600080fd5b506103ad610ac8565b604080519115158252519081900360200190f35b3480156103cd57600080fd5b506103d6610ace565b60408051918252519081900360200190f35b3480156103f457600080fd5b506101cb600160a060020a0360043581169060243516604435610ae9565b6101cb600435610b70565b34801561042957600080fd5b506101cb610c2c565b6101cb600435610ca8565b34801561044957600080fd5b506103d6600160a060020a0360043516610d1e565b34801561046a57600080fd5b506103ad610d3d565b34801561047f57600080fd5b506101cb610d4d565b34801561049457600080fd5b506101e2600435610dca565b6104b36004803560248101910135610dee565b6040805160ff909316835260208301919091528051918290030190f35b3480156104dc57600080fd5b506103d6600160a060020a036004351661112f565b3480156104fd57600080fd5b5061050661114a565b6040805161ffff9092168252519081900360200190f35b34801561052957600080fd5b5061053261116e565b6040805163ffffffff9092168252519081900360200190f35b34801561055757600080fd5b506101cb611181565b34801561056c57600080fd5b506101e2611202565b34801561058157600080fd5b506103ad611211565b34801561059657600080fd5b50610213611233565b6101cb600160a060020a036004351660243561126a565b3480156105c257600080fd5b506105cb6112b3565b6040805167ffffffffffffffff9092168252519081900360200190f35b3480156105f457600080fd5b506101cb600160a060020a03600435166112c3565b34801561061557600080fd5b506101cb611315565b34801561062a57600080fd5b506101cb600160a060020a0360043516602435611387565b34801561064e57600080fd5b506101e26113f8565b34801561066357600080fd5b50610678600160a060020a0360043516611407565b60408051602080825283518183015283519192839290830191858101910280838360005b838110156106b457818101518382015260200161069c565b505050509050019250505060405180910390f35b3480156106d457600080fd5b506101e26004356114d9565b3480156106ec57600080fd5b506101cb60048035906024803590810191013560443560643515156084356114f4565b34801561071b57600080fd5b506101cb600160a060020a036004351661182d565b34801561073c57600080fd5b506101cb6004356024356118b9565b34801561075757600080fd5b506101cb600160a060020a036004351661194d565b34801561077857600080fd5b506101cb600160a060020a036004351661199f565b60045460009067ffffffffffffffff163410156107a957600080fd5b600354600060c060020a90910463ffffffff16116107c657600080fd5b6003547501000000000000000000000000000000000000000000900460ff161561086d57600354600076010000000000000000000000000000000000000000000090910461ffff161161081857600080fd5b506003805460001961ffff760100000000000000000000000000000000000000000000808404821692909201160277ffff00000000000000000000000000000000000000000000199091161790556032610871565b5060015b600160a060020a0333166000908152600560205260409020805460ff90921691820190556003805463ffffffff60c060020a808304821694909403169092027bffffffff00000000000000000000000000000000000000000000000019909216919091179055565b600154600160a060020a031681565b60408051808201909152600e81527f43727970746f4d696e6572616c73000000000000000000000000000000000000602082015281565b600a60205260009081526040902054600160a060020a031681565b600054600160a060020a031681565b60035460a060020a900460ff161561096057600080fd5b61096a33826119f1565b151561097557600080fd5b61097f8183611a11565b81600160a060020a031633600160a060020a03167f8c5be1e5ebec7d5bd14f71427d1e84f3dd0314c0f7b2291e5b200ac8c7c3b925836040518082815260200191505060405180910390a35050565b600b8054829081106109dc57fe5b9060005260206000209060050201600091509050806000015490806001018054600181600116156101000203166002900480601f016020809104026020016040519081016040528092919081815260200182805460018160011615610100020316600290048015610a8e5780601f10610a6357610100808354040283529160200191610a8e565b820191906000526020600020905b815481529060010190602001808311610a7157829003601f168201915b505050600284015460038501546004909501549394909367ffffffffffffffff808316945068010000000000000000909204909116915086565b60015b90565b60035463ffffffff60e060020a90910481166287a238031690565b60035460a060020a900460ff1615610b0057600080fd5b600160a060020a0382161515610b1557600080fd5b30600160a060020a031682600160a060020a031614151515610b3657600080fd5b610b403382611a3f565b1515610b4b57600080fd5b610b5583826119f1565b1515610b6057600080fd5b610b6b838383611a5f565b505050565b60008181526009602052604081205434919033600160a060020a03908116911614610b9a57600080fd5b600b805484908110610ba857fe5b60009182526020909120600590910201600381015490915068010000000000000000900467ffffffffffffffff1615610be057600080fd5b8054610beb90611ae7565b821015610bf757600080fd5b60030180546fffffffffffffffff00000000000000001916680100000000000000004267ffffffffffffffff16021790555050565b60035433600160a060020a03908116911614610c4757600080fd5b60035460a060020a900460ff161515610c5f57600080fd5b6003805474ff0000000000000000000000000000000000000000191690556040517f7805862f689e2f13df9f062ff482ad3ad112aca9e0847911ed832e158c525b3390600090a1565b600b5434906000908310610cbb57600080fd5b60008381526009602052604090205430600160a060020a03908116911614610ce257600080fd5b600b805484908110610cf057fe5b9060005260206000209060050201905080600401548210151515610d1357600080fd5b610b6b303385611a5f565b600160a060020a0381166000908152600560205260409020545b919050565b60035460a060020a900460ff1681565b6000805433600160a060020a0390811691161480610d79575060015433600160a060020a039081169116145b80610d92575060025433600160a060020a039081169116145b1515610d9d57600080fd5b600354604051600160a060020a039182169130163180156108fc02916000818181858888f1505050505050565b600081815260096020526040902054600160a060020a0316801515610d3857600080fd5b600080600080610dfc611c56565b60035460009060e060020a900463ffffffff168110610e1a57600080fd5b662386f26fc10000341015610e2e57600080fd5b600160a060020a03331660009081526005602052604081205411610e5157600080fd5b610e59611b29565b9350610e6a8463ffffffff16611b64565b9250603260ff841610610e7c57600080fd5b600160068460ff16815481101515610e9057fe5b90600052602060002090600891828204019190066004029054906101000a900463ffffffff160360068460ff16815481101515610ec957fe5b90600052602060002090600891828204019190066004026101000a81548163ffffffff021916908363ffffffff16021790555060016003601c9054906101000a900463ffffffff16036003601c6101000a81548163ffffffff021916908363ffffffff16021790555060c0604051908101604052808460ff16815260200189898080601f0160208091040260200160405190810160405280939291908181526020018383808284378201915050505050508152602001610fb88a8a8080601f01602080910402602001604051908101604052809392919081815260200183838082843750611be2945050505050565b81524267ffffffffffffffff166020808301919091526000604083018190526060909201829052600b805460018082018084559290945284517f0175b7a638427703f0dbe7bb9bbf987a2551717b34e79f33b5b1008d1fa01db96005909202918201908155858401518051969850949592948894919361105f937f0175b7a638427703f0dbe7bb9bbf987a2551717b34e79f33b5b1008d1fa01dba01929190910190611ca1565b5060408281015160028301556060830151600383018054608086015167ffffffffffffffff1990911667ffffffffffffffff938416176fffffffffffffffff0000000000000000191668010000000000000000939091169290920291909117905560a09092015160049091015533600160a060020a0316600081815260086020908152838220805460010190556005815283822080546000190190559490930383526009909352908190208054600160a060020a0319169092179091559190910151919791965090945050505050565b600160a060020a031660009081526008602052604090205490565b600354760100000000000000000000000000000000000000000000900461ffff1681565b60035460c060020a900463ffffffff1681565b60035433600160a060020a0390811691161461119c57600080fd5b60035460a060020a900460ff16156111b357600080fd5b6003805474ff0000000000000000000000000000000000000000191660a060020a1790556040517f6985a02210a168e66602d3235cb6db0e70f92b3ba4d376a33c0f3d9434bff62590600090a1565b600354600160a060020a031681565b6003547501000000000000000000000000000000000000000000900460ff1681565b60408051808201909152600381527f47454d0000000000000000000000000000000000000000000000000000000000602082015281565b8061127433610d1e565b101561127f57600080fd5b600160a060020a03338116600090815260056020526040808220805485900390559390911681529190912080549091019055565b60045467ffffffffffffffff1681565b60005433600160a060020a039081169116146112de57600080fd5b600160a060020a03811615156112f357600080fd5b60018054600160a060020a031916600160a060020a0392909216919091179055565b60005433600160a060020a0390811691161480611340575060015433600160a060020a039081169116145b80611359575060025433600160a060020a039081169116145b151561136457600080fd5b6003805477ffffff00000000000000000000000000000000000000000019169055565b60035460a060020a900460ff161561139e57600080fd5b600160a060020a03821615156113b357600080fd5b30600160a060020a031682600160a060020a0316141515156113d457600080fd5b6113de33826119f1565b15156113e957600080fd5b6113f4338383611a5f565b5050565b600254600160a060020a031681565b606060006060600080600061141b8761112f565b945084151561143a5760408051600081526020810190915295506114cf565b84604051908082528060200260200182016040528015611464578160200160208202803883390190505b50935061146f610ace565b925060009150600090505b8281116114cb57600081815260096020526040902054600160a060020a03888116911614156114c3578084838151811015156114b257fe5b602090810290910101526001909101905b60010161147a565b8395505b5050505050919050565b600960205260009081526040902054600160a060020a031681565b60006114fe611c56565b6000805433600160a060020a039081169116148061152a575060015433600160a060020a039081169116145b80611543575060025433600160a060020a039081169116145b151561154e57600080fd5b600354600060e060020a90910463ffffffff161161156b57600080fd5b6032891061157857600080fd5b60328910156115fc57600160068a81548110151561159257fe5b90600052602060002090600891828204019190066004029054906101000a900463ffffffff160360068a8154811015156115c857fe5b90600052602060002090600891828204019190066004026101000a81548163ffffffff021916908363ffffffff1602179055505b60009250841561160a574292505b6003805460001963ffffffff60e060020a80840482169290920116027bffffffffffffffffffffffffffffffffffffffffffffffffffffffff9091161790556040805160c0810182528a815281516020601f8b01819004810282018101909352898152909180830191908b908b9081908401838280828437505050928452505050602080820189905267ffffffffffffffff4281166040840152861660608301526080909101869052600b80546001818101808455600093909352845160059092027f0175b7a638427703f0dbe7bb9bbf987a2551717b34e79f33b5b1008d1fa01db98101928355858501518051969850919593948894611733937f0175b7a638427703f0dbe7bb9bbf987a2551717b34e79f33b5b1008d1fa01dba9093019290910190611ca1565b506040828101516002830155606083015160038084018054608087015167ffffffffffffffff90811668010000000000000000026fffffffffffffffff0000000000000000199190951667ffffffffffffffff1990921691909117169290921790915560a090930151600490920191909155600160a060020a0330166000818152600860209081528382208054600101905595909403845260099094529091208054600160a060020a031916909217909155805463ffffffff60c060020a808304821660001901909116027bffffffff00000000000000000000000000000000000000000000000019909116179055505050505050505050565b60035433600160a060020a0390811691161461184857600080fd5b600160a060020a038116151561185d57600080fd5b600354604051600160a060020a038084169216907f8be0079c531659141344cd1fd0a4f28419497f9722a3daafe3b4186f6b6457e090600090a360038054600160a060020a031916600160a060020a0392909216919091179055565b6000805433600160a060020a03908116911614806118e5575060015433600160a060020a039081169116145b806118fe575060025433600160a060020a039081169116145b151561190957600080fd5b600b54831061191757600080fd5b600b80548490811061192557fe5b906000526020600020906005020190508167ffffffffffffffff168160040181905550505050565b60005433600160a060020a0390811691161461196857600080fd5b600160a060020a038116151561197d57600080fd5b60028054600160a060020a031916600160a060020a0392909216919091179055565b60005433600160a060020a039081169116146119ba57600080fd5b600160a060020a03811615156119cf57600080fd5b60008054600160a060020a031916600160a060020a0392909216919091179055565b600090815260096020526040902054600160a060020a0391821691161490565b6000918252600a60205260409091208054600160a060020a031916600160a060020a03909216919091179055565b6000908152600a6020526040902054600160a060020a0391821691161490565b600160a060020a03808416600081815260086020908152604080832080546000190190559386168083528483208054600101905585835260098252918490208054600160a060020a031916831790558351858152935191937fddf252ad1be2c89b69c2b068fc378daa952ba7f163c4a11628f55a4df523b3ef929081900390910190a3505050565b6000600760058304815481101515611afb57fe5b6000918252602090912060048204015460039091166008026101000a900467ffffffffffffffff1692915050565b60035460408051428152446020820152815190819003909101902060009160c060020a900463ffffffff1690811515611b5e57fe5b06905090565b60008060ff81805b60065460ff83161015611bd8576006805460ff8416908110611b8a57fe5b90600052602060002090600891828204019190066004029054906101000a900463ffffffff1690508084019350858463ffffffff161115611bcd57819250611bd8565b600190910190611b6c565b5090949350505050565b600080826040518082805190602001908083835b60208310611c155780518252601f199092019160209182019101611bf6565b5181516020939093036101000a60001901801990911692169190911790526040519201829003909120935060649250839150611c4e9050565b069392505050565b60c060405190810160405280600081526020016060815260200160008152602001600067ffffffffffffffff168152602001600067ffffffffffffffff168152602001600081525090565b828054600181600116156101000203166002900490600052602060002090601f016020900481019282601f10611ce257805160ff1916838001178555611d0f565b82800160010185558215611d0f579182015b82811115611d0f578251825591602001919060010190611cf4565b50611d1b929150611d1f565b5090565b610acb91905b80821115611d1b5760008155600101611d255600a165627a7a7230582061d4b4d5ca26fd962c45b39bf96831c7c47d771d19ebb86f73323768d9fc08af0029",
  "source": "pragma solidity ^0.4.11;\n\nimport \"./MineralOwnership.sol\";\n\ncontract MineralMarket is MineralOwnership {\n\n    function buyOre() external payable {\n        require(msg.value >= orePrice);\n        require(oresLeft > 0);\n        uint8 amount;\n        if (isPresale) {\n            require(discounts > 0);\n            amount = 50;\n            discounts--;\n        } else {\n            amount = 1;\n        }\n        ownerOreCount[msg.sender] += amount;\n        oresLeft -= amount;\n    }\n\n    function buyGem(uint _gemId) external payable {\n        uint gainedWei = msg.value;\n        require(_gemId < gemstones.length);\n        require(gemIndexToOwner[_gemId] == address(this));\n\n        Gemstone storage gem = gemstones[_gemId];\n        require(gainedWei >= gem.price);\n\n        _transfer(address(this), msg.sender, _gemId);\n    }\n\n   function mintGem(uint _categoryIdx, string _name, uint256 _colour, bool _polished, uint256 _price) onlyTeamMembers external {\n\n        require(gemsLeft > 0);\n        require(_categoryIdx < CATEGORY_COUNT);\n\n        //Decrease the mineral count for the category if not PROMO gem\n        if (_categoryIdx < CATEGORY_COUNT){\n             mineralCounts[_categoryIdx] = mineralCounts[_categoryIdx] - 1;\n        }\n\n        uint64 stamp = 0;\n        if (_polished) {\n            stamp = uint64(block.timestamp);\n        }\n\n        //Decrease total mineral count\n        gemsLeft = gemsLeft - 1;\n\n        Gemstone memory _stone = Gemstone({\n            category : _categoryIdx,\n            name : _name,\n            colour : _colour,\n            extractionTime : uint64(block.timestamp),\n            polishedTime : stamp,\n            price : _price\n        });\n\n        uint256 newStoneId = gemstones.push(_stone) - 1;\n\n        ownerGemCount[address(this)]++;\n        gemIndexToOwner[newStoneId] = address(this);\n        oresLeft--;\n    }\n\n    function setPrice(uint256 _gemId, uint256 _price) onlyTeamMembers external {\n        require(_gemId < gemstones.length);\n        Gemstone storage gem = gemstones[_gemId];\n        gem.price = uint64(_price);\n    }\n\n    function withdrawBalance() onlyTeamMembers external {\n        //require(msg.sender == owner);\n        bool res = owner.send(this.balance);\n    }\n}\n",
  "sourcePath": "/Users/jakub/GitHub/cryptominerals-beta/contracts/MineralMarket.sol",
  "compiler": {
    "name": "solc",
    "version": "0.4.23+commit.124ca40d.Emscripten.clang"
  },
  "schemaVersion": "2.0.0",
  "updatedAt": "2018-07-10T20:32:33.109Z"
}